{
  "contractName": "Exchange",
  "abi": [
    {
      "constant": true,
      "inputs": [
        {
          "name": "",
          "type": "address"
        }
      ],
      "name": "lastActiveTransaction",
      "outputs": [
        {
          "name": "",
          "type": "uint256"
        }
      ],
      "payable": false,
      "stateMutability": "view",
      "type": "function"
    },
    {
      "constant": true,
      "inputs": [
        {
          "name": "",
          "type": "bytes32"
        }
      ],
      "name": "withdrawn",
      "outputs": [
        {
          "name": "",
          "type": "bool"
        }
      ],
      "payable": false,
      "stateMutability": "view",
      "type": "function"
    },
    {
      "constant": true,
      "inputs": [
        {
          "name": "",
          "type": "address"
        }
      ],
      "name": "admins",
      "outputs": [
        {
          "name": "",
          "type": "bool"
        }
      ],
      "payable": false,
      "stateMutability": "view",
      "type": "function"
    },
    {
      "constant": true,
      "inputs": [
        {
          "name": "",
          "type": "address"
        },
        {
          "name": "",
          "type": "address"
        }
      ],
      "name": "tokens",
      "outputs": [
        {
          "name": "",
          "type": "uint256"
        }
      ],
      "payable": false,
      "stateMutability": "view",
      "type": "function"
    },
    {
      "constant": true,
      "inputs": [],
      "name": "feeAccount",
      "outputs": [
        {
          "name": "",
          "type": "address"
        }
      ],
      "payable": false,
      "stateMutability": "view",
      "type": "function"
    },
    {
      "constant": true,
      "inputs": [
        {
          "name": "",
          "type": "address"
        }
      ],
      "name": "invalidOrder",
      "outputs": [
        {
          "name": "",
          "type": "uint256"
        }
      ],
      "payable": false,
      "stateMutability": "view",
      "type": "function"
    },
    {
      "constant": true,
      "inputs": [],
      "name": "owner",
      "outputs": [
        {
          "name": "",
          "type": "address"
        }
      ],
      "payable": false,
      "stateMutability": "view",
      "type": "function"
    },
    {
      "constant": true,
      "inputs": [
        {
          "name": "",
          "type": "bytes32"
        }
      ],
      "name": "traded",
      "outputs": [
        {
          "name": "",
          "type": "bool"
        }
      ],
      "payable": false,
      "stateMutability": "view",
      "type": "function"
    },
    {
      "constant": true,
      "inputs": [],
      "name": "inactivityReleasePeriod",
      "outputs": [
        {
          "name": "",
          "type": "uint256"
        }
      ],
      "payable": false,
      "stateMutability": "view",
      "type": "function"
    },
    {
      "constant": true,
      "inputs": [
        {
          "name": "",
          "type": "bytes32"
        }
      ],
      "name": "orderFills",
      "outputs": [
        {
          "name": "",
          "type": "uint256"
        }
      ],
      "payable": false,
      "stateMutability": "view",
      "type": "function"
    },
    {
      "inputs": [
        {
          "name": "feeAccount_",
          "type": "address"
        }
      ],
      "payable": false,
      "stateMutability": "nonpayable",
      "type": "constructor"
    },
    {
      "payable": false,
      "stateMutability": "nonpayable",
      "type": "fallback"
    },
    {
      "anonymous": false,
      "inputs": [
        {
          "indexed": true,
          "name": "previousOwner",
          "type": "address"
        },
        {
          "indexed": true,
          "name": "newOwner",
          "type": "address"
        }
      ],
      "name": "SetOwner",
      "type": "event"
    },
    {
      "anonymous": false,
      "inputs": [
        {
          "indexed": false,
          "name": "tokenBuy",
          "type": "address"
        },
        {
          "indexed": false,
          "name": "amountBuy",
          "type": "uint256"
        },
        {
          "indexed": false,
          "name": "tokenSell",
          "type": "address"
        },
        {
          "indexed": false,
          "name": "amountSell",
          "type": "uint256"
        },
        {
          "indexed": false,
          "name": "expires",
          "type": "uint256"
        },
        {
          "indexed": false,
          "name": "nonce",
          "type": "uint256"
        },
        {
          "indexed": false,
          "name": "user",
          "type": "address"
        },
        {
          "indexed": false,
          "name": "v",
          "type": "uint8"
        },
        {
          "indexed": false,
          "name": "r",
          "type": "bytes32"
        },
        {
          "indexed": false,
          "name": "s",
          "type": "bytes32"
        }
      ],
      "name": "Order",
      "type": "event"
    },
    {
      "anonymous": false,
      "inputs": [
        {
          "indexed": false,
          "name": "tokenBuy",
          "type": "address"
        },
        {
          "indexed": false,
          "name": "amountBuy",
          "type": "uint256"
        },
        {
          "indexed": false,
          "name": "tokenSell",
          "type": "address"
        },
        {
          "indexed": false,
          "name": "amountSell",
          "type": "uint256"
        },
        {
          "indexed": false,
          "name": "expires",
          "type": "uint256"
        },
        {
          "indexed": false,
          "name": "nonce",
          "type": "uint256"
        },
        {
          "indexed": false,
          "name": "user",
          "type": "address"
        },
        {
          "indexed": false,
          "name": "v",
          "type": "uint8"
        },
        {
          "indexed": false,
          "name": "r",
          "type": "bytes32"
        },
        {
          "indexed": false,
          "name": "s",
          "type": "bytes32"
        }
      ],
      "name": "Cancel",
      "type": "event"
    },
    {
      "anonymous": false,
      "inputs": [
        {
          "indexed": false,
          "name": "tokenBuy",
          "type": "address"
        },
        {
          "indexed": false,
          "name": "amountBuy",
          "type": "uint256"
        },
        {
          "indexed": false,
          "name": "tokenSell",
          "type": "address"
        },
        {
          "indexed": false,
          "name": "amountSell",
          "type": "uint256"
        },
        {
          "indexed": false,
          "name": "get",
          "type": "address"
        },
        {
          "indexed": false,
          "name": "give",
          "type": "address"
        }
      ],
      "name": "Trade",
      "type": "event"
    },
    {
      "anonymous": false,
      "inputs": [
        {
          "indexed": false,
          "name": "token",
          "type": "address"
        },
        {
          "indexed": false,
          "name": "user",
          "type": "address"
        },
        {
          "indexed": false,
          "name": "amount",
          "type": "uint256"
        },
        {
          "indexed": false,
          "name": "balance",
          "type": "uint256"
        }
      ],
      "name": "Deposit",
      "type": "event"
    },
    {
      "anonymous": false,
      "inputs": [
        {
          "indexed": false,
          "name": "token",
          "type": "address"
        },
        {
          "indexed": false,
          "name": "user",
          "type": "address"
        },
        {
          "indexed": false,
          "name": "amount",
          "type": "uint256"
        },
        {
          "indexed": false,
          "name": "balance",
          "type": "uint256"
        }
      ],
      "name": "Withdraw",
      "type": "event"
    },
    {
      "constant": false,
      "inputs": [
        {
          "name": "assertion",
          "type": "bool"
        }
      ],
      "name": "assert",
      "outputs": [],
      "payable": false,
      "stateMutability": "nonpayable",
      "type": "function"
    },
    {
      "constant": false,
      "inputs": [
        {
          "name": "a",
          "type": "uint256"
        },
        {
          "name": "b",
          "type": "uint256"
        }
      ],
      "name": "safeMul",
      "outputs": [
        {
          "name": "",
          "type": "uint256"
        }
      ],
      "payable": false,
      "stateMutability": "nonpayable",
      "type": "function"
    },
    {
      "constant": false,
      "inputs": [
        {
          "name": "a",
          "type": "uint256"
        },
        {
          "name": "b",
          "type": "uint256"
        }
      ],
      "name": "safeSub",
      "outputs": [
        {
          "name": "",
          "type": "uint256"
        }
      ],
      "payable": false,
      "stateMutability": "nonpayable",
      "type": "function"
    },
    {
      "constant": false,
      "inputs": [
        {
          "name": "a",
          "type": "uint256"
        },
        {
          "name": "b",
          "type": "uint256"
        }
      ],
      "name": "safeAdd",
      "outputs": [
        {
          "name": "",
          "type": "uint256"
        }
      ],
      "payable": false,
      "stateMutability": "nonpayable",
      "type": "function"
    },
    {
      "constant": false,
      "inputs": [
        {
          "name": "newOwner",
          "type": "address"
        }
      ],
      "name": "setOwner",
      "outputs": [],
      "payable": false,
      "stateMutability": "nonpayable",
      "type": "function"
    },
    {
      "constant": false,
      "inputs": [],
      "name": "getOwner",
      "outputs": [
        {
          "name": "out",
          "type": "address"
        }
      ],
      "payable": false,
      "stateMutability": "nonpayable",
      "type": "function"
    },
    {
      "constant": false,
      "inputs": [
        {
          "name": "user",
          "type": "address"
        },
        {
          "name": "nonce",
          "type": "uint256"
        }
      ],
      "name": "invalidateOrdersBefore",
      "outputs": [],
      "payable": false,
      "stateMutability": "nonpayable",
      "type": "function"
    },
    {
      "constant": false,
      "inputs": [
        {
          "name": "expiry",
          "type": "uint256"
        }
      ],
      "name": "setInactivityReleasePeriod",
      "outputs": [
        {
          "name": "success",
          "type": "bool"
        }
      ],
      "payable": false,
      "stateMutability": "nonpayable",
      "type": "function"
    },
    {
      "constant": false,
      "inputs": [
        {
          "name": "admin",
          "type": "address"
        },
        {
          "name": "isAdmin",
          "type": "bool"
        }
      ],
      "name": "setAdmin",
      "outputs": [],
      "payable": false,
      "stateMutability": "nonpayable",
      "type": "function"
    },
    {
      "constant": false,
      "inputs": [
        {
          "name": "token",
          "type": "address"
        },
        {
          "name": "amount",
          "type": "uint256"
        }
      ],
      "name": "depositToken",
      "outputs": [],
      "payable": false,
      "stateMutability": "nonpayable",
      "type": "function"
    },
    {
      "constant": false,
      "inputs": [],
      "name": "deposit",
      "outputs": [],
      "payable": true,
      "stateMutability": "payable",
      "type": "function"
    },
    {
      "constant": false,
      "inputs": [
        {
          "name": "token",
          "type": "address"
        },
        {
          "name": "amount",
          "type": "uint256"
        }
      ],
      "name": "withdraw",
      "outputs": [
        {
          "name": "success",
          "type": "bool"
        }
      ],
      "payable": false,
      "stateMutability": "nonpayable",
      "type": "function"
    },
    {
      "constant": false,
      "inputs": [
        {
          "name": "token",
          "type": "address"
        },
        {
          "name": "amount",
          "type": "uint256"
        },
        {
          "name": "user",
          "type": "address"
        },
        {
          "name": "nonce",
          "type": "uint256"
        },
        {
          "name": "v",
          "type": "uint8"
        },
        {
          "name": "r",
          "type": "bytes32"
        },
        {
          "name": "s",
          "type": "bytes32"
        },
        {
          "name": "feeWithdrawal",
          "type": "uint256"
        }
      ],
      "name": "adminWithdraw",
      "outputs": [
        {
          "name": "success",
          "type": "bool"
        }
      ],
      "payable": false,
      "stateMutability": "nonpayable",
      "type": "function"
    },
    {
      "constant": true,
      "inputs": [
        {
          "name": "token",
          "type": "address"
        },
        {
          "name": "user",
          "type": "address"
        }
      ],
      "name": "balanceOf",
      "outputs": [
        {
          "name": "",
          "type": "uint256"
        }
      ],
      "payable": false,
      "stateMutability": "view",
      "type": "function"
    },
    {
      "constant": false,
      "inputs": [
        {
          "name": "tradeValues",
          "type": "uint256[8]"
        },
        {
          "name": "tradeAddresses",
          "type": "address[4]"
        },
        {
          "name": "v",
          "type": "uint8[2]"
        },
        {
          "name": "rs",
          "type": "bytes32[4]"
        }
      ],
      "name": "trade",
      "outputs": [
        {
          "name": "success",
          "type": "bool"
        }
      ],
      "payable": false,
      "stateMutability": "nonpayable",
      "type": "function"
    }
  ],
  "bytecode": "0x608060405234801561001057600080fd5b50604051602080613b9783398101806040528101908080519060200190929190505050336000806101000a81548173ffffffffffffffffffffffffffffffffffffffff021916908373ffffffffffffffffffffffffffffffffffffffff16021790555080600660006101000a81548173ffffffffffffffffffffffffffffffffffffffff021916908373ffffffffffffffffffffffffffffffffffffffff160217905550620186a060078190555050613ac9806100ce6000396000f300608060405260043610610149576000357c0100000000000000000000000000000000000000000000000000000000900463ffffffff1680630674763c1461015b57806313af40351461018a5780632295115b146101cd578063254dcfe21461028f578063338b5dea146102e65780633823d66c14610333578063429b62e51461037c5780634b0bddd2146103d7578063508493bc1461042657806365e17c9d1461049d57806383dbb27b146104f4578063893d20e81461054b5780638da5cb5b146105a2578063a293d1e8146105f9578063b12de55914610644578063d05c78da14610691578063d0e30db0146106dc578063d5813323146106e6578063dd93c74a1461072f578063e6cb901314610774578063ef343588146107bf578063f31174ee146108b7578063f3fef3a3146108e2578063f7213db614610947578063f7888aec1461098c575b34801561015557600080fd5b50600080fd5b34801561016757600080fd5b50610188600480360381019080803515159060200190929190505050610a03565b005b34801561019657600080fd5b506101cb600480360381019080803573ffffffffffffffffffffffffffffffffffffffff169060200190929190505050610a12565b005b3480156101d957600080fd5b50610275600480360381019080803573ffffffffffffffffffffffffffffffffffffffff16906020019092919080359060200190929190803573ffffffffffffffffffffffffffffffffffffffff16906020019092919080359060200190929190803560ff1690602001909291908035600019169060200190929190803560001916906020019092919080359060200190929190505050610b28565b604051808215151515815260200191505060405180910390f35b34801561029b57600080fd5b506102d0600480360381019080803573ffffffffffffffffffffffffffffffffffffffff169060200190929190505050611513565b6040518082815260200191505060405180910390f35b3480156102f257600080fd5b50610331600480360381019080803573ffffffffffffffffffffffffffffffffffffffff1690602001909291908035906020019092919050505061152b565b005b34801561033f57600080fd5b5061036260048036038101908080356000191690602001909291905050506118b9565b604051808215151515815260200191505060405180910390f35b34801561038857600080fd5b506103bd600480360381019080803573ffffffffffffffffffffffffffffffffffffffff1690602001909291905050506118d9565b604051808215151515815260200191505060405180910390f35b3480156103e357600080fd5b50610424600480360381019080803573ffffffffffffffffffffffffffffffffffffffff1690602001909291908035151590602001909291905050506118f9565b005b34801561043257600080fd5b50610487600480360381019080803573ffffffffffffffffffffffffffffffffffffffff169060200190929190803573ffffffffffffffffffffffffffffffffffffffff1690602001909291905050506119ac565b6040518082815260200191505060405180910390f35b3480156104a957600080fd5b506104b26119d1565b604051808273ffffffffffffffffffffffffffffffffffffffff1673ffffffffffffffffffffffffffffffffffffffff16815260200191505060405180910390f35b34801561050057600080fd5b50610535600480360381019080803573ffffffffffffffffffffffffffffffffffffffff1690602001909291905050506119f7565b6040518082815260200191505060405180910390f35b34801561055757600080fd5b50610560611a0f565b604051808273ffffffffffffffffffffffffffffffffffffffff1673ffffffffffffffffffffffffffffffffffffffff16815260200191505060405180910390f35b3480156105ae57600080fd5b506105b7611a38565b604051808273ffffffffffffffffffffffffffffffffffffffff1673ffffffffffffffffffffffffffffffffffffffff16815260200191505060405180910390f35b34801561060557600080fd5b5061062e6004803603810190808035906020019092919080359060200190929190505050611a5d565b6040518082815260200191505060405180910390f35b34801561065057600080fd5b5061068f600480360381019080803573ffffffffffffffffffffffffffffffffffffffff16906020019092919080359060200190929190505050611a76565b005b34801561069d57600080fd5b506106c66004803603810190808035906020019092919080359060200190929190505050611bbb565b6040518082815260200191505060405180910390f35b6106e4611bee565b005b3480156106f257600080fd5b506107156004803603810190808035600019169060200190929190505050611e5e565b604051808215151515815260200191505060405180910390f35b34801561073b57600080fd5b5061075a60048036038101908080359060200190929190505050611e7e565b604051808215151515815260200191505060405180910390f35b34801561078057600080fd5b506107a96004803603810190808035906020019092919080359060200190929190505050611f51565b6040518082815260200191505060405180910390f35b3480156107cb57600080fd5b5061089d600480360381019080806101000190600880602002604051908101604052809291908260086020028082843782019150505050509192919290806080019060048060200260405190810160405280929190826004602002808284378201915050505050919291929080604001906002806020026040519081016040528092919082600260200280828437820191505050505091929192908060800190600480602002604051908101604052809291908260046020028082843782019150505050509192919290505050611f7b565b604051808215151515815260200191505060405180910390f35b3480156108c357600080fd5b506108cc613583565b6040518082815260200191505060405180910390f35b3480156108ee57600080fd5b5061092d600480360381019080803573ffffffffffffffffffffffffffffffffffffffff16906020019092919080359060200190929190505050613589565b604051808215151515815260200191505060405180910390f35b34801561095357600080fd5b5061097660048036038101908080356000191690602001909291905050506139fe565b6040518082815260200191505060405180910390f35b34801561099857600080fd5b506109ed600480360381019080803573ffffffffffffffffffffffffffffffffffffffff169060200190929190803573ffffffffffffffffffffffffffffffffffffffff169060200190929190505050613a16565b6040518082815260200191505060405180910390f35b801515610a0f57600080fd5b50565b610a6a6000809054906101000a900473ffffffffffffffffffffffffffffffffffffffff1673ffffffffffffffffffffffffffffffffffffffff163373ffffffffffffffffffffffffffffffffffffffff1614610a03565b8073ffffffffffffffffffffffffffffffffffffffff166000809054906101000a900473ffffffffffffffffffffffffffffffffffffffff1673ffffffffffffffffffffffffffffffffffffffff167fcbf985117192c8f614a58aaf97226bb80a754772f5f6edf06f87c675f2e6c66360405160405180910390a3806000806101000a81548173ffffffffffffffffffffffffffffffffffffffff021916908373ffffffffffffffffffffffffffffffffffffffff16021790555050565b6000806000809054906101000a900473ffffffffffffffffffffffffffffffffffffffff1673ffffffffffffffffffffffffffffffffffffffff163373ffffffffffffffffffffffffffffffffffffffff1614158015610bd25750600360003373ffffffffffffffffffffffffffffffffffffffff1673ffffffffffffffffffffffffffffffffffffffff16815260200190815260200160002060009054906101000a900460ff16155b15610bdc57600080fd5b308a8a8a8a604051602001808673ffffffffffffffffffffffffffffffffffffffff1673ffffffffffffffffffffffffffffffffffffffff166c010000000000000000000000000281526014018573ffffffffffffffffffffffffffffffffffffffff1673ffffffffffffffffffffffffffffffffffffffff166c010000000000000000000000000281526014018481526020018373ffffffffffffffffffffffffffffffffffffffff1673ffffffffffffffffffffffffffffffffffffffff166c01000000000000000000000000028152601401828152602001955050505050506040516020818303038152906040526040518082805190602001908083835b602083101515610d025780518252602082019150602081019050602083039250610cdd565b6001836020036101000a0380198251168184511680821785525050505050509050019150506040518091039020905060096000826000191660001916815260200190815260200160002060009054906101000a900460ff1615610d6457600080fd5b600160096000836000191660001916815260200190815260200160002060006101000a81548160ff0219169083151502179055508773ffffffffffffffffffffffffffffffffffffffff1660018260405160200180807f19457468657265756d205369676e6564204d6573736167653a0a333200000000815250601c0182600019166000191681526020019150506040516020818303038152906040526040518082805190602001908083835b602083101515610e365780518252602082019150602081019050602083039250610e11565b6001836020036101000a0380198251168184511680821785525050505050509050019150506040518091039020888888604051600081526020016040526040518085600019166000191681526020018460ff1660ff1681526020018360001916600019168152602001826000191660001916815260200194505050505060206040516020810390808403906000865af1158015610ed7573d6000803e3d6000fd5b5050506020604051035173ffffffffffffffffffffffffffffffffffffffff16141515610f0357600080fd5b66b1a2bc2ec50000831115610f1d5766b1a2bc2ec5000092505b88600260008c73ffffffffffffffffffffffffffffffffffffffff1673ffffffffffffffffffffffffffffffffffffffff16815260200190815260200160002060008a73ffffffffffffffffffffffffffffffffffffffff1673ffffffffffffffffffffffffffffffffffffffff168152602001908152602001600020541015610fa657600080fd5b61102c600260008c73ffffffffffffffffffffffffffffffffffffffff1673ffffffffffffffffffffffffffffffffffffffff16815260200190815260200160002060008a73ffffffffffffffffffffffffffffffffffffffff1673ffffffffffffffffffffffffffffffffffffffff168152602001908152602001600020548a611a5d565b600260008c73ffffffffffffffffffffffffffffffffffffffff1673ffffffffffffffffffffffffffffffffffffffff16815260200190815260200160002060008a73ffffffffffffffffffffffffffffffffffffffff1673ffffffffffffffffffffffffffffffffffffffff16815260200190815260200160002081905550611170600260008c73ffffffffffffffffffffffffffffffffffffffff1673ffffffffffffffffffffffffffffffffffffffff1681526020019081526020016000206000600660009054906101000a900473ffffffffffffffffffffffffffffffffffffffff1673ffffffffffffffffffffffffffffffffffffffff1673ffffffffffffffffffffffffffffffffffffffff16815260200190815260200160002054670de0b6b3a7640000611161868d611bbb565b81151561116a57fe5b04611f51565b600260008c73ffffffffffffffffffffffffffffffffffffffff1673ffffffffffffffffffffffffffffffffffffffff1681526020019081526020016000206000600660009054906101000a900473ffffffffffffffffffffffffffffffffffffffff1673ffffffffffffffffffffffffffffffffffffffff1673ffffffffffffffffffffffffffffffffffffffff16815260200190815260200160002081905550670de0b6b3a764000061122f84670de0b6b3a7640000038b611bbb565b81151561123857fe5b049850600073ffffffffffffffffffffffffffffffffffffffff168a73ffffffffffffffffffffffffffffffffffffffff1614156112b5578773ffffffffffffffffffffffffffffffffffffffff166108fc8a9081150290604051600060405180830381858888f1935050505015156112b057600080fd5b61139f565b8973ffffffffffffffffffffffffffffffffffffffff1663a9059cbb898b6040518363ffffffff167c0100000000000000000000000000000000000000000000000000000000028152600401808373ffffffffffffffffffffffffffffffffffffffff1673ffffffffffffffffffffffffffffffffffffffff16815260200182815260200192505050602060405180830381600087803b15801561135857600080fd5b505af115801561136c573d6000803e3d6000fd5b505050506040513d602081101561138257600080fd5b8101908080519060200190929190505050151561139e57600080fd5b5b43600460008a73ffffffffffffffffffffffffffffffffffffffff1673ffffffffffffffffffffffffffffffffffffffff168152602001908152602001600020819055507ff341246adaac6f497bc2a656f546ab9e182111d630394f0c57c710a59a2cb5678a898b600260008f73ffffffffffffffffffffffffffffffffffffffff1673ffffffffffffffffffffffffffffffffffffffff16815260200190815260200160002060008d73ffffffffffffffffffffffffffffffffffffffff1673ffffffffffffffffffffffffffffffffffffffff16815260200190815260200160002054604051808573ffffffffffffffffffffffffffffffffffffffff1673ffffffffffffffffffffffffffffffffffffffff1681526020018473ffffffffffffffffffffffffffffffffffffffff1673ffffffffffffffffffffffffffffffffffffffff16815260200183815260200182815260200194505050505060405180910390a15098975050505050505050565b60046020528060005260406000206000915090505481565b6115b1600260008473ffffffffffffffffffffffffffffffffffffffff1673ffffffffffffffffffffffffffffffffffffffff16815260200190815260200160002060003373ffffffffffffffffffffffffffffffffffffffff1673ffffffffffffffffffffffffffffffffffffffff1681526020019081526020016000205482611f51565b600260008473ffffffffffffffffffffffffffffffffffffffff1673ffffffffffffffffffffffffffffffffffffffff16815260200190815260200160002060003373ffffffffffffffffffffffffffffffffffffffff1673ffffffffffffffffffffffffffffffffffffffff1681526020019081526020016000208190555043600460003373ffffffffffffffffffffffffffffffffffffffff1673ffffffffffffffffffffffffffffffffffffffff168152602001908152602001600020819055508173ffffffffffffffffffffffffffffffffffffffff166323b872dd3330846040518463ffffffff167c0100000000000000000000000000000000000000000000000000000000028152600401808473ffffffffffffffffffffffffffffffffffffffff1673ffffffffffffffffffffffffffffffffffffffff1681526020018373ffffffffffffffffffffffffffffffffffffffff1673ffffffffffffffffffffffffffffffffffffffff1681526020018281526020019350505050602060405180830381600087803b15801561174c57600080fd5b505af1158015611760573d6000803e3d6000fd5b505050506040513d602081101561177657600080fd5b8101908080519060200190929190505050151561179257600080fd5b7fdcbc1c05240f31ff3ad067ef1ee35ce4997762752e3a095284754544f4c709d7823383600260008773ffffffffffffffffffffffffffffffffffffffff1673ffffffffffffffffffffffffffffffffffffffff16815260200190815260200160002060003373ffffffffffffffffffffffffffffffffffffffff1673ffffffffffffffffffffffffffffffffffffffff16815260200190815260200160002054604051808573ffffffffffffffffffffffffffffffffffffffff1673ffffffffffffffffffffffffffffffffffffffff1681526020018473ffffffffffffffffffffffffffffffffffffffff1673ffffffffffffffffffffffffffffffffffffffff16815260200183815260200182815260200194505050505060405180910390a15050565b60096020528060005260406000206000915054906101000a900460ff1681565b60036020528060005260406000206000915054906101000a900460ff1681565b6119516000809054906101000a900473ffffffffffffffffffffffffffffffffffffffff1673ffffffffffffffffffffffffffffffffffffffff163373ffffffffffffffffffffffffffffffffffffffff1614610a03565b80600360008473ffffffffffffffffffffffffffffffffffffffff1673ffffffffffffffffffffffffffffffffffffffff16815260200190815260200160002060006101000a81548160ff0219169083151502179055505050565b6002602052816000526040600020602052806000526040600020600091509150505481565b600660009054906101000a900473ffffffffffffffffffffffffffffffffffffffff1681565b60016020528060005260406000206000915090505481565b60008060009054906101000a900473ffffffffffffffffffffffffffffffffffffffff16905090565b6000809054906101000a900473ffffffffffffffffffffffffffffffffffffffff1681565b6000611a6b83831115610a03565b818303905092915050565b6000809054906101000a900473ffffffffffffffffffffffffffffffffffffffff1673ffffffffffffffffffffffffffffffffffffffff163373ffffffffffffffffffffffffffffffffffffffff1614158015611b1d5750600360003373ffffffffffffffffffffffffffffffffffffffff1673ffffffffffffffffffffffffffffffffffffffff16815260200190815260200160002060009054906101000a900460ff16155b15611b2757600080fd5b600160008373ffffffffffffffffffffffffffffffffffffffff1673ffffffffffffffffffffffffffffffffffffffff16815260200190815260200160002054811015611b7357600080fd5b80600160008473ffffffffffffffffffffffffffffffffffffffff1673ffffffffffffffffffffffffffffffffffffffff168152602001908152602001600020819055505050565b6000808284029050611be46000851480611bdf5750838583811515611bdc57fe5b04145b610a03565b8091505092915050565b611c74600260008073ffffffffffffffffffffffffffffffffffffffff1673ffffffffffffffffffffffffffffffffffffffff16815260200190815260200160002060003373ffffffffffffffffffffffffffffffffffffffff1673ffffffffffffffffffffffffffffffffffffffff1681526020019081526020016000205434611f51565b600260008073ffffffffffffffffffffffffffffffffffffffff1673ffffffffffffffffffffffffffffffffffffffff16815260200190815260200160002060003373ffffffffffffffffffffffffffffffffffffffff1673ffffffffffffffffffffffffffffffffffffffff1681526020019081526020016000208190555043600460003373ffffffffffffffffffffffffffffffffffffffff1673ffffffffffffffffffffffffffffffffffffffff168152602001908152602001600020819055507fdcbc1c05240f31ff3ad067ef1ee35ce4997762752e3a095284754544f4c709d760003334600260008073ffffffffffffffffffffffffffffffffffffffff1673ffffffffffffffffffffffffffffffffffffffff16815260200190815260200160002060003373ffffffffffffffffffffffffffffffffffffffff1673ffffffffffffffffffffffffffffffffffffffff16815260200190815260200160002054604051808573ffffffffffffffffffffffffffffffffffffffff1673ffffffffffffffffffffffffffffffffffffffff1681526020018473ffffffffffffffffffffffffffffffffffffffff1673ffffffffffffffffffffffffffffffffffffffff16815260200183815260200182815260200194505050505060405180910390a1565b60086020528060005260406000206000915054906101000a900460ff1681565b60008060009054906101000a900473ffffffffffffffffffffffffffffffffffffffff1673ffffffffffffffffffffffffffffffffffffffff163373ffffffffffffffffffffffffffffffffffffffff1614158015611f275750600360003373ffffffffffffffffffffffffffffffffffffffff1673ffffffffffffffffffffffffffffffffffffffff16815260200190815260200160002060009054906101000a900460ff16155b15611f3157600080fd5b620f4240821115611f4157600080fd5b8160078190555060019050919050565b6000808284019050611f71848210158015611f6c5750838210155b610a03565b8091505092915050565b60008060008060009054906101000a900473ffffffffffffffffffffffffffffffffffffffff1673ffffffffffffffffffffffffffffffffffffffff163373ffffffffffffffffffffffffffffffffffffffff16141580156120275750600360003373ffffffffffffffffffffffffffffffffffffffff1673ffffffffffffffffffffffffffffffffffffffff16815260200190815260200160002060009054906101000a900460ff16155b1561203157600080fd5b86600360088110151561204057fe5b60200201516001600088600260048110151561205857fe5b602002015173ffffffffffffffffffffffffffffffffffffffff1673ffffffffffffffffffffffffffffffffffffffff1681526020019081526020016000205411156120a357600080fd5b308660006004811015156120b357fe5b60200201518860006008811015156120c757fe5b60200201518860016004811015156120db57fe5b60200201518a60016008811015156120ef57fe5b60200201518b600260088110151561210357fe5b60200201518c600360088110151561211757fe5b60200201518c600260048110151561212b57fe5b6020020151604051602001808973ffffffffffffffffffffffffffffffffffffffff1673ffffffffffffffffffffffffffffffffffffffff166c010000000000000000000000000281526014018873ffffffffffffffffffffffffffffffffffffffff1673ffffffffffffffffffffffffffffffffffffffff166c010000000000000000000000000281526014018781526020018673ffffffffffffffffffffffffffffffffffffffff1673ffffffffffffffffffffffffffffffffffffffff166c010000000000000000000000000281526014018581526020018481526020018381526020018273ffffffffffffffffffffffffffffffffffffffff1673ffffffffffffffffffffffffffffffffffffffff166c01000000000000000000000000028152601401985050505050505050506040516020818303038152906040526040518082805190602001908083835b6020831015156122a1578051825260208201915060208101905060208303925061227c565b6001836020036101000a038019825116818451168082178552505050505050905001915050604051809103902091508560026004811015156122df57fe5b602002015173ffffffffffffffffffffffffffffffffffffffff1660018360405160200180807f19457468657265756d205369676e6564204d6573736167653a0a333200000000815250601c0182600019166000191681526020019150506040516020818303038152906040526040518082805190602001908083835b602083101515612381578051825260208201915060208101905060208303925061235c565b6001836020036101000a03801982511681845116808217855250505050505090500191505060405180910390208760006002811015156123bd57fe5b60200201518760006004811015156123d157fe5b60200201518860016004811015156123e557fe5b6020020151604051600081526020016040526040518085600019166000191681526020018460ff1660ff1681526020018360001916600019168152602001826000191660001916815260200194505050505060206040516020810390808403906000865af115801561245b573d6000803e3d6000fd5b5050506020604051035173ffffffffffffffffffffffffffffffffffffffff1614151561248757600080fd5b8187600460088110151561249757fe5b60200201518760036004811015156124ab57fe5b60200201518960056008811015156124bf57fe5b60200201516040516020018085600019166000191681526020018481526020018373ffffffffffffffffffffffffffffffffffffffff1673ffffffffffffffffffffffffffffffffffffffff166c010000000000000000000000000281526014018281526020019450505050506040516020818303038152906040526040518082805190602001908083835b602083101515612570578051825260208201915060208101905060208303925061254b565b6001836020036101000a038019825116818451168082178552505050505050905001915050604051809103902090508560036004811015156125ae57fe5b602002015173ffffffffffffffffffffffffffffffffffffffff1660018260405160200180807f19457468657265756d205369676e6564204d6573736167653a0a333200000000815250601c0182600019166000191681526020019150506040516020818303038152906040526040518082805190602001908083835b602083101515612650578051825260208201915060208101905060208303925061262b565b6001836020036101000a038019825116818451168082178552505050505050905001915050604051809103902087600160028110151561268c57fe5b60200201518760026004811015156126a057fe5b60200201518860036004811015156126b457fe5b6020020151604051600081526020016040526040518085600019166000191681526020018460ff1660ff1681526020018360001916600019168152602001826000191660001916815260200194505050505060206040516020810390808403906000865af115801561272a573d6000803e3d6000fd5b5050506020604051035173ffffffffffffffffffffffffffffffffffffffff1614151561275657600080fd5b60086000826000191660001916815260200190815260200160002060009054906101000a900460ff161561278957600080fd5b600160086000836000191660001916815260200190815260200160002060006101000a81548160ff02191690831515021790555067016345785d8a00008760066008811015156127d557fe5b602002015111156128025767016345785d8a00008760066008811015156127f857fe5b6020020181815250505b67016345785d8a000087600760088110151561281a57fe5b602002015111156128475767016345785d8a000087600760088110151561283d57fe5b6020020181815250505b86600060088110151561285657fe5b60200201516128936005600085600019166000191681526020019081526020016000205489600460088110151561288957fe5b6020020151611f51565b111561289e57600080fd5b8660046008811015156128ad57fe5b6020020151600260008860006004811015156128c557fe5b602002015173ffffffffffffffffffffffffffffffffffffffff1673ffffffffffffffffffffffffffffffffffffffff168152602001908152602001600020600088600360048110151561291557fe5b602002015173ffffffffffffffffffffffffffffffffffffffff1673ffffffffffffffffffffffffffffffffffffffff16815260200190815260200160002054101561296057600080fd5b86600060088110151561296f57fe5b60200201516129a488600160088110151561298657fe5b602002015189600460088110151561299a57fe5b6020020151611bbb565b8115156129ad57fe5b04600260008860016004811015156129c157fe5b602002015173ffffffffffffffffffffffffffffffffffffffff1673ffffffffffffffffffffffffffffffffffffffff1681526020019081526020016000206000886002600481101515612a1157fe5b602002015173ffffffffffffffffffffffffffffffffffffffff1673ffffffffffffffffffffffffffffffffffffffff168152602001908152602001600020541015612a5c57600080fd5b612b1b60026000886000600481101515612a7257fe5b602002015173ffffffffffffffffffffffffffffffffffffffff1673ffffffffffffffffffffffffffffffffffffffff1681526020019081526020016000206000886003600481101515612ac257fe5b602002015173ffffffffffffffffffffffffffffffffffffffff1673ffffffffffffffffffffffffffffffffffffffff16815260200190815260200160002054886004600881101515612b1157fe5b6020020151611a5d565b60026000886000600481101515612b2e57fe5b602002015173ffffffffffffffffffffffffffffffffffffffff1673ffffffffffffffffffffffffffffffffffffffff1681526020019081526020016000206000886003600481101515612b7e57fe5b602002015173ffffffffffffffffffffffffffffffffffffffff1673ffffffffffffffffffffffffffffffffffffffff16815260200190815260200160002081905550612cb960026000886000600481101515612bd757fe5b602002015173ffffffffffffffffffffffffffffffffffffffff1673ffffffffffffffffffffffffffffffffffffffff1681526020019081526020016000206000886002600481101515612c2757fe5b602002015173ffffffffffffffffffffffffffffffffffffffff1673ffffffffffffffffffffffffffffffffffffffff16815260200190815260200160002054670de0b6b3a7640000612caa8a6004600881101515612c8257fe5b60200201518b6006600881101515612c9657fe5b6020020151670de0b6b3a764000003611bbb565b811515612cb357fe5b04611f51565b60026000886000600481101515612ccc57fe5b602002015173ffffffffffffffffffffffffffffffffffffffff1673ffffffffffffffffffffffffffffffffffffffff1681526020019081526020016000206000886002600481101515612d1c57fe5b602002015173ffffffffffffffffffffffffffffffffffffffff1673ffffffffffffffffffffffffffffffffffffffff16815260200190815260200160002081905550612e5c60026000886000600481101515612d7557fe5b602002015173ffffffffffffffffffffffffffffffffffffffff1673ffffffffffffffffffffffffffffffffffffffff1681526020019081526020016000206000600660009054906101000a900473ffffffffffffffffffffffffffffffffffffffff1673ffffffffffffffffffffffffffffffffffffffff1673ffffffffffffffffffffffffffffffffffffffff16815260200190815260200160002054670de0b6b3a7640000612e4d8a6004600881101515612e2f57fe5b60200201518b6006600881101515612e4357fe5b6020020151611bbb565b811515612e5657fe5b04611f51565b60026000886000600481101515612e6f57fe5b602002015173ffffffffffffffffffffffffffffffffffffffff1673ffffffffffffffffffffffffffffffffffffffff1681526020019081526020016000206000600660009054906101000a900473ffffffffffffffffffffffffffffffffffffffff1673ffffffffffffffffffffffffffffffffffffffff1673ffffffffffffffffffffffffffffffffffffffff1681526020019081526020016000208190555061300a60026000886001600481101515612f2757fe5b602002015173ffffffffffffffffffffffffffffffffffffffff1673ffffffffffffffffffffffffffffffffffffffff1681526020019081526020016000206000886002600481101515612f7757fe5b602002015173ffffffffffffffffffffffffffffffffffffffff1673ffffffffffffffffffffffffffffffffffffffff16815260200190815260200160002054886000600881101515612fc657fe5b6020020151612ffb8a6001600881101515612fdd57fe5b60200201518b6004600881101515612ff157fe5b6020020151611bbb565b81151561300457fe5b04611a5d565b6002600088600160048110151561301d57fe5b602002015173ffffffffffffffffffffffffffffffffffffffff1673ffffffffffffffffffffffffffffffffffffffff168152602001908152602001600020600088600260048110151561306d57fe5b602002015173ffffffffffffffffffffffffffffffffffffffff1673ffffffffffffffffffffffffffffffffffffffff168152602001908152602001600020819055506131e2600260008860016004811015156130c657fe5b602002015173ffffffffffffffffffffffffffffffffffffffff1673ffffffffffffffffffffffffffffffffffffffff168152602001908152602001600020600088600360048110151561311657fe5b602002015173ffffffffffffffffffffffffffffffffffffffff1673ffffffffffffffffffffffffffffffffffffffff16815260200190815260200160002054670de0b6b3a764000089600060088110151561316e57fe5b60200201516131c96131b08c600760088110151561318857fe5b6020020151670de0b6b3a7640000038d60016008811015156131a657fe5b6020020151611bbb565b8c60046008811015156131bf57fe5b6020020151611bbb565b8115156131d257fe5b048115156131dc57fe5b04611f51565b600260008860016004811015156131f557fe5b602002015173ffffffffffffffffffffffffffffffffffffffff1673ffffffffffffffffffffffffffffffffffffffff168152602001908152602001600020600088600360048110151561324557fe5b602002015173ffffffffffffffffffffffffffffffffffffffff1673ffffffffffffffffffffffffffffffffffffffff168152602001908152602001600020819055506133bf6002600088600160048110151561329e57fe5b602002015173ffffffffffffffffffffffffffffffffffffffff1673ffffffffffffffffffffffffffffffffffffffff1681526020019081526020016000206000600660009054906101000a900473ffffffffffffffffffffffffffffffffffffffff1673ffffffffffffffffffffffffffffffffffffffff1673ffffffffffffffffffffffffffffffffffffffff16815260200190815260200160002054670de0b6b3a764000089600060088110151561335557fe5b60200201516133a661338d8c600760088110151561336f57fe5b60200201518d600160088110151561338357fe5b6020020151611bbb565b8c600460088110151561339c57fe5b6020020151611bbb565b8115156133af57fe5b048115156133b957fe5b04611f51565b600260008860016004811015156133d257fe5b602002015173ffffffffffffffffffffffffffffffffffffffff1673ffffffffffffffffffffffffffffffffffffffff1681526020019081526020016000206000600660009054906101000a900473ffffffffffffffffffffffffffffffffffffffff1673ffffffffffffffffffffffffffffffffffffffff1673ffffffffffffffffffffffffffffffffffffffff168152602001908152602001600020819055506134ac600560008460001916600019168152602001908152602001600020548860046008811015156134a257fe5b6020020151611f51565b6005600084600019166000191681526020019081526020016000208190555043600460008860026004811015156134df57fe5b602002015173ffffffffffffffffffffffffffffffffffffffff1673ffffffffffffffffffffffffffffffffffffffff16815260200190815260200160002081905550436004600088600360048110151561353657fe5b602002015173ffffffffffffffffffffffffffffffffffffffff1673ffffffffffffffffffffffffffffffffffffffff168152602001908152602001600020819055505050949350505050565b60075481565b60006007546135d743600460003373ffffffffffffffffffffffffffffffffffffffff1673ffffffffffffffffffffffffffffffffffffffff16815260200190815260200160002054611a5d565b10156135e257600080fd5b81600260008573ffffffffffffffffffffffffffffffffffffffff1673ffffffffffffffffffffffffffffffffffffffff16815260200190815260200160002060003373ffffffffffffffffffffffffffffffffffffffff1673ffffffffffffffffffffffffffffffffffffffff16815260200190815260200160002054101561366b57600080fd5b6136f1600260008573ffffffffffffffffffffffffffffffffffffffff1673ffffffffffffffffffffffffffffffffffffffff16815260200190815260200160002060003373ffffffffffffffffffffffffffffffffffffffff1673ffffffffffffffffffffffffffffffffffffffff1681526020019081526020016000205483611a5d565b600260008573ffffffffffffffffffffffffffffffffffffffff1673ffffffffffffffffffffffffffffffffffffffff16815260200190815260200160002060003373ffffffffffffffffffffffffffffffffffffffff1673ffffffffffffffffffffffffffffffffffffffff16815260200190815260200160002081905550600073ffffffffffffffffffffffffffffffffffffffff168373ffffffffffffffffffffffffffffffffffffffff1614156137eb573373ffffffffffffffffffffffffffffffffffffffff166108fc839081150290604051600060405180830381858888f1935050505015156137e657600080fd5b6138d5565b8273ffffffffffffffffffffffffffffffffffffffff1663a9059cbb33846040518363ffffffff167c0100000000000000000000000000000000000000000000000000000000028152600401808373ffffffffffffffffffffffffffffffffffffffff1673ffffffffffffffffffffffffffffffffffffffff16815260200182815260200192505050602060405180830381600087803b15801561388e57600080fd5b505af11580156138a2573d6000803e3d6000fd5b505050506040513d60208110156138b857600080fd5b810190808051906020019092919050505015156138d457600080fd5b5b7ff341246adaac6f497bc2a656f546ab9e182111d630394f0c57c710a59a2cb567833384600260008873ffffffffffffffffffffffffffffffffffffffff1673ffffffffffffffffffffffffffffffffffffffff16815260200190815260200160002060003373ffffffffffffffffffffffffffffffffffffffff1673ffffffffffffffffffffffffffffffffffffffff16815260200190815260200160002054604051808573ffffffffffffffffffffffffffffffffffffffff1673ffffffffffffffffffffffffffffffffffffffff1681526020018473ffffffffffffffffffffffffffffffffffffffff1673ffffffffffffffffffffffffffffffffffffffff16815260200183815260200182815260200194505050505060405180910390a192915050565b60056020528060005260406000206000915090505481565b6000600260008473ffffffffffffffffffffffffffffffffffffffff1673ffffffffffffffffffffffffffffffffffffffff16815260200190815260200160002060008373ffffffffffffffffffffffffffffffffffffffff1673ffffffffffffffffffffffffffffffffffffffff168152602001908152602001600020549050929150505600a165627a7a72305820974128ee9ecd983ae333a1fd891d6b31ee91bf149937654e89c10d12c0873d8c0029",
  "source": "pragma solidity ^0.4.24;\n\ncontract Token {\n  bytes32 public standard;\n  bytes32 public name;\n  bytes32 public symbol;\n  uint256 public totalSupply;\n  uint8 public decimals;\n  bool public allowTransactions;\n  mapping(address => uint256) public balanceOf;\n  mapping(address => mapping(address => uint256)) public allowance;\n\n  function transfer(address _to, uint256 _value) returns (bool success);\n\n  function approveAndCall(address _spender, uint256 _value, bytes _extraData) returns (bool success);\n\n  function approve(address _spender, uint256 _value) returns (bool success);\n\n  function transferFrom(address _from, address _to, uint256 _value) returns (bool success);\n}\n\ncontract Exchange {\n  function assert(bool assertion) {\n    if (!assertion) throw;\n  }\n\n  function safeMul(uint a, uint b) returns (uint) {\n    uint c = a * b;\n    assert(a == 0 || c / a == b);\n    return c;\n  }\n\n  function safeSub(uint a, uint b) returns (uint) {\n    assert(b <= a);\n    return a - b;\n  }\n\n  function safeAdd(uint a, uint b) returns (uint) {\n    uint c = a + b;\n    assert(c >= a && c >= b);\n    return c;\n  }\n\n  address public owner;\n  mapping(address => uint256) public invalidOrder;\n\n  event SetOwner(address indexed previousOwner, address indexed newOwner);\n  modifier onlyOwner {\n    assert(msg.sender == owner);\n    _;\n  }\n  function setOwner(address newOwner) onlyOwner {\n    emit SetOwner(owner, newOwner);\n    owner = newOwner;\n  }\n\n  function getOwner() returns (address out) {\n    return owner;\n  }\n\n  function invalidateOrdersBefore(address user, uint256 nonce) onlyAdmin {\n    if (nonce < invalidOrder[user]) throw;\n    invalidOrder[user] = nonce;\n  }\n\n  mapping(address => mapping(address => uint256)) public tokens; //mapping of token addresses to mapping of account balances\n\n  mapping(address => bool) public admins;\n  mapping(address => uint256) public lastActiveTransaction;\n  mapping(bytes32 => uint256) public orderFills;\n  address public feeAccount;\n  uint256 public inactivityReleasePeriod;\n  mapping(bytes32 => bool) public traded;\n  mapping(bytes32 => bool) public withdrawn;\n\n  event Order(address tokenBuy, uint256 amountBuy, address tokenSell, uint256 amountSell, uint256 expires, uint256 nonce, address user, uint8 v, bytes32 r, bytes32 s);\n  event Cancel(address tokenBuy, uint256 amountBuy, address tokenSell, uint256 amountSell, uint256 expires, uint256 nonce, address user, uint8 v, bytes32 r, bytes32 s);\n  event Trade(address tokenBuy, uint256 amountBuy, address tokenSell, uint256 amountSell, address get, address give);\n  event Deposit(address token, address user, uint256 amount, uint256 balance);\n  event Withdraw(address token, address user, uint256 amount, uint256 balance);\n\n  function setInactivityReleasePeriod(uint256 expiry) onlyAdmin returns (bool success) {\n    if (expiry > 1000000) throw;\n    inactivityReleasePeriod = expiry;\n    return true;\n  }\n\n  function Exchange(address feeAccount_) {\n    owner = msg.sender;\n    feeAccount = feeAccount_;\n    inactivityReleasePeriod = 100000;\n  }\n\n  function setAdmin(address admin, bool isAdmin) onlyOwner {\n    admins[admin] = isAdmin;\n  }\n\n  modifier onlyAdmin {\n    if (msg.sender != owner && !admins[msg.sender]) throw;\n    _;\n  }\n\n  function() external {\n    throw;\n  }\n\n  function depositToken(address token, uint256 amount) {\n    tokens[token][msg.sender] = safeAdd(tokens[token][msg.sender], amount);\n    lastActiveTransaction[msg.sender] = block.number;\n    if (!Token(token).transferFrom(msg.sender, this, amount)) throw;\n    emit Deposit(token, msg.sender, amount, tokens[token][msg.sender]);\n  }\n\n  function deposit() payable {\n    tokens[address(0)][msg.sender] = safeAdd(tokens[address(0)][msg.sender], msg.value);\n    lastActiveTransaction[msg.sender] = block.number;\n    emit Deposit(address(0), msg.sender, msg.value, tokens[address(0)][msg.sender]);\n  }\n\n  function withdraw(address token, uint256 amount) returns (bool success) {\n    if (safeSub(block.number, lastActiveTransaction[msg.sender]) < inactivityReleasePeriod) throw;\n    if (tokens[token][msg.sender] < amount) throw;\n    tokens[token][msg.sender] = safeSub(tokens[token][msg.sender], amount);\n    if (token == address(0)) {\n      if (!msg.sender.send(amount)) throw;\n    } else {\n      if (!Token(token).transfer(msg.sender, amount)) throw;\n    }\n    emit Withdraw(token, msg.sender, amount, tokens[token][msg.sender]);\n  }\n\n  function adminWithdraw(address token, uint256 amount, address user, uint256 nonce, uint8 v, bytes32 r, bytes32 s, uint256 feeWithdrawal) onlyAdmin returns (bool success) {\n    bytes32 hash = keccak256(abi.encodePacked(this, token, amount, user, nonce));\n    if (withdrawn[hash]) throw;\n    withdrawn[hash] = true;\n    if (ecrecover(keccak256(abi.encodePacked(\"\\x19Ethereum Signed Message:\\n32\", hash)), v, r, s) != user) throw;\n    if (feeWithdrawal > 50 finney) feeWithdrawal = 50 finney;\n    if (tokens[token][user] < amount) throw;\n    tokens[token][user] = safeSub(tokens[token][user], amount);\n    tokens[token][feeAccount] = safeAdd(tokens[token][feeAccount], safeMul(feeWithdrawal, amount) / 1 ether);\n    amount = safeMul((1 ether - feeWithdrawal), amount) / 1 ether;\n    if (token == address(0)) {\n      if (!user.send(amount)) throw;\n    } else {\n      if (!Token(token).transfer(user, amount)) throw;\n    }\n    lastActiveTransaction[user] = block.number;\n    emit Withdraw(token, user, amount, tokens[token][user]);\n  }\n\n  function balanceOf(address token, address user) constant returns (uint256) {\n    return tokens[token][user];\n  }\n\n  function trade(uint256[8] tradeValues, address[4] tradeAddresses, uint8[2] v, bytes32[4] rs) onlyAdmin returns (bool success) {\n    /* amount is in amountBuy terms */\n    /* tradeValues\n       [0] amountBuy\n       [1] amountSell\n       [2] expires\n       [3] nonce\n       [4] amount\n       [5] tradeNonce\n       [6] feeMake\n       [7] feeTake\n     tradeAddressses\n       [0] tokenBuy\n       [1] tokenSell\n       [2] maker\n       [3] taker\n     */\n    if (invalidOrder[tradeAddresses[2]] > tradeValues[3]) throw;\n    bytes32 orderHash = keccak256(abi.encodePacked(this, tradeAddresses[0], tradeValues[0], tradeAddresses[1], tradeValues[1], tradeValues[2], tradeValues[3], tradeAddresses[2]));\n    if (ecrecover(keccak256(abi.encodePacked(\"\\x19Ethereum Signed Message:\\n32\", orderHash)), v[0], rs[0], rs[1]) != tradeAddresses[2]) throw;\n    bytes32 tradeHash = keccak256(abi.encodePacked(orderHash, tradeValues[4], tradeAddresses[3], tradeValues[5]));\n    if (ecrecover(keccak256(abi.encodePacked(\"\\x19Ethereum Signed Message:\\n32\", tradeHash)), v[1], rs[2], rs[3]) != tradeAddresses[3]) throw;\n    if (traded[tradeHash]) throw;\n    traded[tradeHash] = true;\n    if (tradeValues[6] > 100 finney) tradeValues[6] = 100 finney;\n    if (tradeValues[7] > 100 finney) tradeValues[7] = 100 finney;\n    if (safeAdd(orderFills[orderHash], tradeValues[4]) > tradeValues[0]) throw;\n    if (tokens[tradeAddresses[0]][tradeAddresses[3]] < tradeValues[4]) throw;\n    if (tokens[tradeAddresses[1]][tradeAddresses[2]] < (safeMul(tradeValues[1], tradeValues[4]) / tradeValues[0])) throw;\n    tokens[tradeAddresses[0]][tradeAddresses[3]] = safeSub(tokens[tradeAddresses[0]][tradeAddresses[3]], tradeValues[4]);\n    tokens[tradeAddresses[0]][tradeAddresses[2]] = safeAdd(tokens[tradeAddresses[0]][tradeAddresses[2]], safeMul(tradeValues[4], ((1 ether) - tradeValues[6])) / (1 ether));\n    tokens[tradeAddresses[0]][feeAccount] = safeAdd(tokens[tradeAddresses[0]][feeAccount], safeMul(tradeValues[4], tradeValues[6]) / (1 ether));\n    tokens[tradeAddresses[1]][tradeAddresses[2]] = safeSub(tokens[tradeAddresses[1]][tradeAddresses[2]], safeMul(tradeValues[1], tradeValues[4]) / tradeValues[0]);\n    tokens[tradeAddresses[1]][tradeAddresses[3]] = safeAdd(tokens[tradeAddresses[1]][tradeAddresses[3]], safeMul(safeMul(((1 ether) - tradeValues[7]), tradeValues[1]), tradeValues[4]) / tradeValues[0] / (1 ether));\n    tokens[tradeAddresses[1]][feeAccount] = safeAdd(tokens[tradeAddresses[1]][feeAccount], safeMul(safeMul(tradeValues[7], tradeValues[1]), tradeValues[4]) / tradeValues[0] / (1 ether));\n    orderFills[orderHash] = safeAdd(orderFills[orderHash], tradeValues[4]);\n    lastActiveTransaction[tradeAddresses[2]] = block.number;\n    lastActiveTransaction[tradeAddresses[3]] = block.number;\n  }\n}\n",
  "sourcePath": "/home/robot/CarboneumProject/contracts/contracts/idex/Exchange.sol",
  "compiler": {
    "name": "solc",
    "version": "0.4.25+commit.59dbf8f1.Emscripten.clang"
  },
  "schemaVersion": "2.0.2",
  "updatedAt": "2019-06-10T11:28:52.419Z"
}