{
  "contractName": "PromoCode",
  "abi": [
    {
      "constant": false,
      "inputs": [],
      "name": "renounceOwnership",
      "outputs": [],
      "payable": false,
      "stateMutability": "nonpayable",
      "type": "function"
    },
    {
      "constant": true,
      "inputs": [],
      "name": "owner",
      "outputs": [
        {
          "name": "",
          "type": "address"
        }
      ],
      "payable": false,
      "stateMutability": "view",
      "type": "function"
    },
    {
      "constant": true,
      "inputs": [],
      "name": "amount",
      "outputs": [
        {
          "name": "",
          "type": "uint256"
        }
      ],
      "payable": false,
      "stateMutability": "view",
      "type": "function"
    },
    {
      "constant": true,
      "inputs": [
        {
          "name": "",
          "type": "bytes32"
        }
      ],
      "name": "used",
      "outputs": [
        {
          "name": "",
          "type": "bool"
        }
      ],
      "payable": false,
      "stateMutability": "view",
      "type": "function"
    },
    {
      "constant": false,
      "inputs": [
        {
          "name": "_newOwner",
          "type": "address"
        }
      ],
      "name": "transferOwnership",
      "outputs": [],
      "payable": false,
      "stateMutability": "nonpayable",
      "type": "function"
    },
    {
      "constant": true,
      "inputs": [],
      "name": "token",
      "outputs": [
        {
          "name": "",
          "type": "address"
        }
      ],
      "payable": false,
      "stateMutability": "view",
      "type": "function"
    },
    {
      "inputs": [
        {
          "name": "_token",
          "type": "address"
        },
        {
          "name": "_amount",
          "type": "uint256"
        }
      ],
      "payable": false,
      "stateMutability": "nonpayable",
      "type": "constructor"
    },
    {
      "anonymous": false,
      "inputs": [
        {
          "indexed": false,
          "name": "user",
          "type": "address"
        },
        {
          "indexed": false,
          "name": "amount",
          "type": "uint256"
        },
        {
          "indexed": false,
          "name": "code",
          "type": "string"
        }
      ],
      "name": "Redeem",
      "type": "event"
    },
    {
      "anonymous": false,
      "inputs": [
        {
          "indexed": true,
          "name": "previousOwner",
          "type": "address"
        }
      ],
      "name": "OwnershipRenounced",
      "type": "event"
    },
    {
      "anonymous": false,
      "inputs": [
        {
          "indexed": true,
          "name": "previousOwner",
          "type": "address"
        },
        {
          "indexed": true,
          "name": "newOwner",
          "type": "address"
        }
      ],
      "name": "OwnershipTransferred",
      "type": "event"
    },
    {
      "constant": false,
      "inputs": [
        {
          "name": "_amount",
          "type": "uint256"
        }
      ],
      "name": "setAmount",
      "outputs": [],
      "payable": false,
      "stateMutability": "nonpayable",
      "type": "function"
    },
    {
      "constant": false,
      "inputs": [
        {
          "name": "promoCode",
          "type": "string"
        },
        {
          "name": "signature",
          "type": "bytes"
        }
      ],
      "name": "redeem",
      "outputs": [],
      "payable": false,
      "stateMutability": "nonpayable",
      "type": "function"
    },
    {
      "constant": true,
      "inputs": [
        {
          "name": "message",
          "type": "string"
        },
        {
          "name": "v",
          "type": "uint8"
        },
        {
          "name": "r",
          "type": "bytes32"
        },
        {
          "name": "s",
          "type": "bytes32"
        }
      ],
      "name": "verifyString",
      "outputs": [
        {
          "name": "signer",
          "type": "address"
        }
      ],
      "payable": false,
      "stateMutability": "pure",
      "type": "function"
    }
  ],
  "bytecode": "0x608060405234801561001057600080fd5b50604051604080610e658339810180604052810190808051906020019092919080519060200190929190505050336000806101000a81548173ffffffffffffffffffffffffffffffffffffffff021916908373ffffffffffffffffffffffffffffffffffffffff1602179055508060038190555081600160006101000a81548173ffffffffffffffffffffffffffffffffffffffff021916908373ffffffffffffffffffffffffffffffffffffffff1602179055505050610d8f806100d66000396000f300608060405260043610610099576000357c0100000000000000000000000000000000000000000000000000000000900463ffffffff168063271f88b41461009e578063715018a6146100cb5780638da5cb5b146100e2578063aa8c217c14610139578063b07c411f14610164578063d2c3fbb7146101ad578063f2fde38b1461027f578063f4ec3ce2146102c2578063fc0c546a14610371575b600080fd5b3480156100aa57600080fd5b506100c9600480360381019080803590602001909291905050506103c8565b005b3480156100d757600080fd5b506100e061042d565b005b3480156100ee57600080fd5b506100f761052f565b604051808273ffffffffffffffffffffffffffffffffffffffff1673ffffffffffffffffffffffffffffffffffffffff16815260200191505060405180910390f35b34801561014557600080fd5b5061014e610554565b6040518082815260200191505060405180910390f35b34801561017057600080fd5b50610193600480360381019080803560001916906020019092919050505061055a565b604051808215151515815260200191505060405180910390f35b3480156101b957600080fd5b5061023d600480360381019080803590602001908201803590602001908080601f0160208091040260200160405190810160405280939291908181526020018383808284378201915050505050509192919290803560ff1690602001909291908035600019169060200190929190803560001916906020019092919050505061057a565b604051808273ffffffffffffffffffffffffffffffffffffffff1673ffffffffffffffffffffffffffffffffffffffff16815260200191505060405180910390f35b34801561028b57600080fd5b506102c0600480360381019080803573ffffffffffffffffffffffffffffffffffffffff1690602001909291905050506107c1565b005b3480156102ce57600080fd5b5061036f600480360381019080803590602001908201803590602001908080601f0160208091040260200160405190810160405280939291908181526020018383808284378201915050505050509192919290803590602001908201803590602001908080601f0160208091040260200160405190810160405280939291908181526020018383808284378201915050505050509192919290505050610828565b005b34801561037d57600080fd5b50610386610c43565b604051808273ffffffffffffffffffffffffffffffffffffffff1673ffffffffffffffffffffffffffffffffffffffff16815260200191505060405180910390f35b6000809054906101000a900473ffffffffffffffffffffffffffffffffffffffff1673ffffffffffffffffffffffffffffffffffffffff163373ffffffffffffffffffffffffffffffffffffffff1614151561042357600080fd5b8060038190555050565b6000809054906101000a900473ffffffffffffffffffffffffffffffffffffffff1673ffffffffffffffffffffffffffffffffffffffff163373ffffffffffffffffffffffffffffffffffffffff1614151561048857600080fd5b6000809054906101000a900473ffffffffffffffffffffffffffffffffffffffff1673ffffffffffffffffffffffffffffffffffffffff167ff8df31144d9c2f0f6b59d69b8b98abd5459d07f2742c4df920b25aae33c6482060405160405180910390a260008060006101000a81548173ffffffffffffffffffffffffffffffffffffffff021916908373ffffffffffffffffffffffffffffffffffffffff160217905550565b6000809054906101000a900473ffffffffffffffffffffffffffffffffffffffff1681565b60035481565b60026020528060005260406000206000915054906101000a900460ff1681565b600060606000806000806000806040805190810160405280602081526020017f19457468657265756d205369676e6564204d6573736167653a0a30303030303081525096508b519450603987019550620f423f85111515156105db57600080fd5b60009350620186a092505b6000831415156106595782858115156105fb57fe5b049150600082141561062557600084141561062457600a8381151561061c57fe5b0492506105e6565b5b838060010194505082820285039450600a8381151561064057fe5b04925060308201915085806001019650508186536105e6565b600084141561066b57601b9350610672565b601a840193505b838752868c6040518083805190602001908083835b6020831015156106ac5780518252602082019150602081019050602083039250610687565b6001836020036101000a03801982511681845116808217855250505050505090500182805190602001908083835b6020831015156106ff57805182526020820191506020810190506020830392506106da565b6001836020036101000a03801982511681845116808217855250505050505090500192505050604051809103902090506001818c8c8c604051600081526020016040526040518085600019166000191681526020018460ff1660ff1681526020018360001916600019168152602001826000191660001916815260200194505050505060206040516020810390808403906000865af11580156107a6573d6000803e3d6000fd5b50505060206040510351975050505050505050949350505050565b6000809054906101000a900473ffffffffffffffffffffffffffffffffffffffff1673ffffffffffffffffffffffffffffffffffffffff163373ffffffffffffffffffffffffffffffffffffffff1614151561081c57600080fd5b61082581610c69565b50565b6000806000806000866040516020018082805190602001908083835b6020831015156108695780518252602082019150602081019050602083039250610844565b6001836020036101000a0380198251168184511680821785525050505050509050019150506040516020818303038152906040526040518082805190602001908083835b6020831015156108d257805182526020820191506020810190506020830392506108ad565b6001836020036101000a03801982511681845116808217855250505050505090500191505060405180910390209450602086015193506040860151925060ff6041870151169150601b8260ff16101561092c57601b820191505b60026000866000191660001916815260200190815260200160002060009054906101000a900460ff1615151561096157600080fd5b600160026000876000191660001916815260200190815260200160002060006101000a81548160ff0219169083151502179055506000809054906101000a900473ffffffffffffffffffffffffffffffffffffffff1673ffffffffffffffffffffffffffffffffffffffff166109d98884878761057a565b73ffffffffffffffffffffffffffffffffffffffff161415156109fb57600080fd5b339050600160009054906101000a900473ffffffffffffffffffffffffffffffffffffffff1673ffffffffffffffffffffffffffffffffffffffff166323b872dd6000809054906101000a900473ffffffffffffffffffffffffffffffffffffffff16836003546040518463ffffffff167c0100000000000000000000000000000000000000000000000000000000028152600401808473ffffffffffffffffffffffffffffffffffffffff1673ffffffffffffffffffffffffffffffffffffffff1681526020018373ffffffffffffffffffffffffffffffffffffffff1673ffffffffffffffffffffffffffffffffffffffff1681526020018281526020019350505050602060405180830381600087803b158015610b1a57600080fd5b505af1158015610b2e573d6000803e3d6000fd5b505050506040513d6020811015610b4457600080fd5b81019080805190602001909291905050501515610b6057600080fd5b7f78e6c3f67f57c26578f2487b930b70d844bcc8dd8f4d629fb4af81252ab5aa658160035489604051808473ffffffffffffffffffffffffffffffffffffffff1673ffffffffffffffffffffffffffffffffffffffff16815260200183815260200180602001828103825283818151815260200191508051906020019080838360005b83811015610bfe578082015181840152602081019050610be3565b50505050905090810190601f168015610c2b5780820380516001836020036101000a031916815260200191505b5094505050505060405180910390a150505050505050565b600160009054906101000a900473ffffffffffffffffffffffffffffffffffffffff1681565b600073ffffffffffffffffffffffffffffffffffffffff168173ffffffffffffffffffffffffffffffffffffffff1614151515610ca557600080fd5b8073ffffffffffffffffffffffffffffffffffffffff166000809054906101000a900473ffffffffffffffffffffffffffffffffffffffff1673ffffffffffffffffffffffffffffffffffffffff167f8be0079c531659141344cd1fd0a4f28419497f9722a3daafe3b4186f6b6457e060405160405180910390a3806000806101000a81548173ffffffffffffffffffffffffffffffffffffffff021916908373ffffffffffffffffffffffffffffffffffffffff160217905550505600a165627a7a723058208aed62fc5a30f5d6c9bf8a03afd7842525230c8555ca908ce2d56d1767a841bf0029",
  "source": "pragma solidity ^0.4.24;\n\nimport \"openzeppelin-solidity/contracts/ownership/Ownable.sol\";\nimport \"openzeppelin-solidity/contracts/token/ERC20/ERC20.sol\";\n\ncontract PromoCode is Ownable {\n  ERC20 public token;\n  mapping(bytes32 => bool) public used;\n  uint256 public amount;\n\n  event Redeem(address user, uint256 amount, string code);\n\n  function PromoCode(ERC20 _token, uint256 _amount) {\n    amount = _amount;\n    token = _token;\n  }\n\n  function setAmount(uint256 _amount) onlyOwner {\n    amount = _amount;\n  }\n\n  function redeem(string promoCode, bytes signature) {\n    bytes32 hash = keccak256(abi.encodePacked(promoCode));\n    bytes32 r;\n    bytes32 s;\n    uint8 v;\n    assembly {\n      r := mload(add(signature, 32))\n      s := mload(add(signature, 64))\n      v := and(mload(add(signature, 65)), 255)\n    }\n    if (v < 27) v += 27;\n\n    require(!used[hash]);\n    used[hash] = true;\n    require(verifyString(promoCode, v, r, s) == owner);\n    address user = msg.sender;\n    require(token.transferFrom(owner, user, amount));\n    emit Redeem(user, amount, promoCode);\n  }\n\n  // https://blog.ricmoo.com/verifying-messages-in-solidity-50a94f82b2ca\n  // Returns the address that signed a given string message\n  function verifyString(string message, uint8 v, bytes32 r, bytes32 s) public pure returns (address signer) {\n    // The message header; we will fill in the length next\n    string memory header = \"\\x19Ethereum Signed Message:\\n000000\";\n    uint256 lengthOffset;\n    uint256 length;\n    assembly {\n    // The first word of a string is its length\n      length := mload(message)\n    // The beginning of the base-10 message length in the prefix\n      lengthOffset := add(header, 57)\n    }\n    // Maximum length we support\n    require(length <= 999999);\n    // The length of the message's length in base-10\n    uint256 lengthLength = 0;\n    // The divisor to get the next left-most message length digit\n    uint256 divisor = 100000;\n    // Move one digit of the message length to the right at a time\n    while (divisor != 0) {\n      // The place value at the divisor\n      uint256 digit = length / divisor;\n      if (digit == 0) {\n        // Skip leading zeros\n        if (lengthLength == 0) {\n          divisor /= 10;\n          continue;\n        }\n      }\n      // Found a non-zero digit or non-leading zero digit\n      lengthLength++;\n      // Remove this digit from the message length's current value\n      length -= digit * divisor;\n      // Shift our base-10 divisor over\n      divisor /= 10;\n\n      // Convert the digit to its ASCII representation (man ascii)\n      digit += 0x30;\n      // Move to the next character and write the digit\n      lengthOffset++;\n      assembly {\n        mstore8(lengthOffset, digit)\n      }\n    }\n    // The null string requires exactly 1 zero (unskip 1 leading 0)\n    if (lengthLength == 0) {\n      lengthLength = 1 + 0x19 + 1;\n    } else {\n      lengthLength += 1 + 0x19;\n    }\n    // Truncate the tailing zeros from the header\n    assembly {\n      mstore(header, lengthLength)\n    }\n    // Perform the elliptic curve recover operation\n    bytes32 check = keccak256(header, message);\n    return ecrecover(check, v, r, s);\n  }\n}\n",
  "sourcePath": "/home/robot/CarboneumProject/contracts/contracts/promocode/PromoCode.sol",
  "compiler": {
    "name": "solc",
    "version": "0.4.25+commit.59dbf8f1.Emscripten.clang"
  },
  "schemaVersion": "2.0.2",
  "updatedAt": "2019-06-11T04:50:56.785Z"
}