{
  "contractName": "RelayWalletIDEX",
  "abi": [
    {
      "constant": true,
      "inputs": [
        {
          "name": "",
          "type": "address"
        }
      ],
      "name": "lastActiveTransaction",
      "outputs": [
        {
          "name": "",
          "type": "uint256"
        }
      ],
      "payable": false,
      "stateMutability": "view",
      "type": "function"
    },
    {
      "constant": true,
      "inputs": [
        {
          "name": "",
          "type": "address"
        },
        {
          "name": "",
          "type": "address"
        }
      ],
      "name": "withdrawAble",
      "outputs": [
        {
          "name": "",
          "type": "uint256"
        }
      ],
      "payable": false,
      "stateMutability": "view",
      "type": "function"
    },
    {
      "constant": true,
      "inputs": [
        {
          "name": "",
          "type": "address"
        },
        {
          "name": "",
          "type": "address"
        }
      ],
      "name": "tokens",
      "outputs": [
        {
          "name": "",
          "type": "uint256"
        }
      ],
      "payable": false,
      "stateMutability": "view",
      "type": "function"
    },
    {
      "constant": false,
      "inputs": [],
      "name": "renounceOwnership",
      "outputs": [],
      "payable": false,
      "stateMutability": "nonpayable",
      "type": "function"
    },
    {
      "constant": true,
      "inputs": [],
      "name": "owner",
      "outputs": [
        {
          "name": "",
          "type": "address"
        }
      ],
      "payable": false,
      "stateMutability": "view",
      "type": "function"
    },
    {
      "constant": false,
      "inputs": [
        {
          "name": "_newOwner",
          "type": "address"
        }
      ],
      "name": "transferOwnership",
      "outputs": [],
      "payable": false,
      "stateMutability": "nonpayable",
      "type": "function"
    },
    {
      "inputs": [
        {
          "name": "_custodian",
          "type": "address"
        }
      ],
      "payable": false,
      "stateMutability": "nonpayable",
      "type": "constructor"
    },
    {
      "payable": true,
      "stateMutability": "payable",
      "type": "fallback"
    },
    {
      "anonymous": false,
      "inputs": [
        {
          "indexed": false,
          "name": "token",
          "type": "address"
        },
        {
          "indexed": false,
          "name": "user",
          "type": "address"
        },
        {
          "indexed": false,
          "name": "amount",
          "type": "uint256"
        },
        {
          "indexed": false,
          "name": "balance",
          "type": "uint256"
        }
      ],
      "name": "Deposit",
      "type": "event"
    },
    {
      "anonymous": false,
      "inputs": [
        {
          "indexed": false,
          "name": "token",
          "type": "address"
        },
        {
          "indexed": false,
          "name": "user",
          "type": "address"
        },
        {
          "indexed": false,
          "name": "amount",
          "type": "uint256"
        },
        {
          "indexed": false,
          "name": "balance",
          "type": "uint256"
        }
      ],
      "name": "Withdraw",
      "type": "event"
    },
    {
      "anonymous": false,
      "inputs": [
        {
          "indexed": false,
          "name": "user",
          "type": "address"
        },
        {
          "indexed": false,
          "name": "tokenBuy",
          "type": "address"
        },
        {
          "indexed": false,
          "name": "tokenSell",
          "type": "address"
        },
        {
          "indexed": false,
          "name": "amountBuy",
          "type": "uint256"
        },
        {
          "indexed": false,
          "name": "amountSell",
          "type": "uint256"
        },
        {
          "indexed": false,
          "name": "balanceBuy",
          "type": "uint256"
        },
        {
          "indexed": false,
          "name": "balanceSell",
          "type": "uint256"
        }
      ],
      "name": "Trade",
      "type": "event"
    },
    {
      "anonymous": false,
      "inputs": [
        {
          "indexed": false,
          "name": "user",
          "type": "address"
        },
        {
          "indexed": false,
          "name": "tokenBuy",
          "type": "address"
        },
        {
          "indexed": false,
          "name": "tokenSell",
          "type": "address"
        },
        {
          "indexed": false,
          "name": "amountBuy",
          "type": "uint256"
        },
        {
          "indexed": false,
          "name": "amountSell",
          "type": "uint256"
        },
        {
          "indexed": false,
          "name": "balanceBuy",
          "type": "uint256"
        },
        {
          "indexed": false,
          "name": "balanceSell",
          "type": "uint256"
        }
      ],
      "name": "CancelOrder",
      "type": "event"
    },
    {
      "anonymous": false,
      "inputs": [
        {
          "indexed": false,
          "name": "amount",
          "type": "uint256"
        }
      ],
      "name": "AdminWithdraw",
      "type": "event"
    },
    {
      "anonymous": false,
      "inputs": [
        {
          "indexed": true,
          "name": "previousOwner",
          "type": "address"
        }
      ],
      "name": "OwnershipRenounced",
      "type": "event"
    },
    {
      "anonymous": false,
      "inputs": [
        {
          "indexed": true,
          "name": "previousOwner",
          "type": "address"
        },
        {
          "indexed": true,
          "name": "newOwner",
          "type": "address"
        }
      ],
      "name": "OwnershipTransferred",
      "type": "event"
    },
    {
      "constant": false,
      "inputs": [
        {
          "name": "amount",
          "type": "uint256"
        }
      ],
      "name": "withdrawByAdmin",
      "outputs": [],
      "payable": false,
      "stateMutability": "nonpayable",
      "type": "function"
    },
    {
      "constant": false,
      "inputs": [],
      "name": "deposit",
      "outputs": [],
      "payable": true,
      "stateMutability": "payable",
      "type": "function"
    },
    {
      "constant": false,
      "inputs": [
        {
          "name": "user",
          "type": "address"
        },
        {
          "name": "tokenBuy",
          "type": "address"
        },
        {
          "name": "tokenSell",
          "type": "address"
        },
        {
          "name": "amountBuy",
          "type": "uint256"
        },
        {
          "name": "amountSell",
          "type": "uint256"
        }
      ],
      "name": "adjustBalance",
      "outputs": [],
      "payable": false,
      "stateMutability": "nonpayable",
      "type": "function"
    },
    {
      "constant": false,
      "inputs": [
        {
          "name": "amount",
          "type": "uint256"
        }
      ],
      "name": "withdraw",
      "outputs": [],
      "payable": false,
      "stateMutability": "nonpayable",
      "type": "function"
    },
    {
      "constant": false,
      "inputs": [
        {
          "name": "token",
          "type": "address"
        },
        {
          "name": "amount",
          "type": "uint256"
        }
      ],
      "name": "depositToken",
      "outputs": [],
      "payable": false,
      "stateMutability": "nonpayable",
      "type": "function"
    },
    {
      "constant": false,
      "inputs": [
        {
          "name": "token",
          "type": "address"
        },
        {
          "name": "amount",
          "type": "uint256"
        }
      ],
      "name": "withdrawToken",
      "outputs": [],
      "payable": false,
      "stateMutability": "nonpayable",
      "type": "function"
    },
    {
      "constant": true,
      "inputs": [
        {
          "name": "token",
          "type": "address"
        },
        {
          "name": "user",
          "type": "address"
        }
      ],
      "name": "balanceOf",
      "outputs": [
        {
          "name": "",
          "type": "uint256"
        }
      ],
      "payable": false,
      "stateMutability": "view",
      "type": "function"
    }
  ],
  "bytecode": "0x60806040523480156200001157600080fd5b50604051602080620022de8339810180604052620000339190810190620000d1565b336000806101000a81548173ffffffffffffffffffffffffffffffffffffffff021916908373ffffffffffffffffffffffffffffffffffffffff16021790555080600160006101000a81548173ffffffffffffffffffffffffffffffffffffffff021916908373ffffffffffffffffffffffffffffffffffffffff160217905550506200011d565b6000620000c98251620000fd565b905092915050565b600060208284031215620000e457600080fd5b6000620000f484828501620000bb565b91505092915050565b600073ffffffffffffffffffffffffffffffffffffffff82169050919050565b6121b1806200012d6000396000f3006080604052600436106100c5576000357c0100000000000000000000000000000000000000000000000000000000900463ffffffff168063254dcfe2146100c75780632cdca048146101045780632e1a7d4d14610141578063338b5dea1461016a5780633d8db91114610193578063508493bc146101bc578063715018a6146101f95780638da5cb5b146102105780639e281a981461023b578063d0e30db014610264578063de242b201461026e578063f2fde38b14610297578063f7888aec146102c0575b005b3480156100d357600080fd5b506100ee60048036036100e99190810190611d1d565b6102fd565b6040516100fb91906120fc565b60405180910390f35b34801561011057600080fd5b5061012b60048036036101269190810190611d46565b610315565b60405161013891906120fc565b60405180910390f35b34801561014d57600080fd5b5061016860048036036101639190810190611e5e565b61033a565b005b34801561017657600080fd5b50610191600480360361018c9190810190611df9565b610790565b005b34801561019f57600080fd5b506101ba60048036036101b59190810190611e5e565b610bbd565b005b3480156101c857600080fd5b506101e360048036036101de9190810190611d46565b610cc8565b6040516101f091906120fc565b60405180910390f35b34801561020557600080fd5b5061020e610ced565b005b34801561021c57600080fd5b50610225610def565b6040516102329190611f96565b60405180910390f35b34801561024757600080fd5b50610262600480360361025d9190810190611df9565b610e14565b005b61026c61133e565b005b34801561027a57600080fd5b5061029560048036036102909190810190611d82565b6116c5565b005b3480156102a357600080fd5b506102be60048036036102b99190810190611d1d565b611ac4565b005b3480156102cc57600080fd5b506102e760048036036102e29190810190611d46565b611b2b565b6040516102f491906120fc565b60405180910390f35b60046020528060005260406000206000915090505481565b6003602052816000526040600020602052806000526040600020600091509150505481565b80600360008073ffffffffffffffffffffffffffffffffffffffff1673ffffffffffffffffffffffffffffffffffffffff16815260200190815260200160002060003373ffffffffffffffffffffffffffffffffffffffff1673ffffffffffffffffffffffffffffffffffffffff16815260200190815260200160002054101515156103fb576040517f08c379a00000000000000000000000000000000000000000000000000000000081526004016103f29061209c565b60405180910390fd5b61048a81600260008073ffffffffffffffffffffffffffffffffffffffff1673ffffffffffffffffffffffffffffffffffffffff16815260200190815260200160002060003373ffffffffffffffffffffffffffffffffffffffff1673ffffffffffffffffffffffffffffffffffffffff16815260200190815260200160002054611bb290919063ffffffff16565b600260008073ffffffffffffffffffffffffffffffffffffffff1673ffffffffffffffffffffffffffffffffffffffff16815260200190815260200160002060003373ffffffffffffffffffffffffffffffffffffffff1673ffffffffffffffffffffffffffffffffffffffff1681526020019081526020016000208190555061059981600360008073ffffffffffffffffffffffffffffffffffffffff1673ffffffffffffffffffffffffffffffffffffffff16815260200190815260200160002060003373ffffffffffffffffffffffffffffffffffffffff1673ffffffffffffffffffffffffffffffffffffffff16815260200190815260200160002054611bb290919063ffffffff16565b600360008073ffffffffffffffffffffffffffffffffffffffff1673ffffffffffffffffffffffffffffffffffffffff16815260200190815260200160002060003373ffffffffffffffffffffffffffffffffffffffff1673ffffffffffffffffffffffffffffffffffffffff168152602001908152602001600020819055503373ffffffffffffffffffffffffffffffffffffffff166108fc829081150290604051600060405180830381858888f19350505050151561068f576040517f08c379a0000000000000000000000000000000000000000000000000000000008152600401610686906120dc565b60405180910390fd5b43600460003373ffffffffffffffffffffffffffffffffffffffff1673ffffffffffffffffffffffffffffffffffffffff168152602001908152602001600020819055507ff341246adaac6f497bc2a656f546ab9e182111d630394f0c57c710a59a2cb56760003383600360008073ffffffffffffffffffffffffffffffffffffffff1673ffffffffffffffffffffffffffffffffffffffff16815260200190815260200160002060003373ffffffffffffffffffffffffffffffffffffffff1673ffffffffffffffffffffffffffffffffffffffff168152602001908152602001600020546040516107859493929190612057565b60405180910390a150565b8173ffffffffffffffffffffffffffffffffffffffff166323b872dd33600160009054906101000a900473ffffffffffffffffffffffffffffffffffffffff16846040518463ffffffff167c010000000000000000000000000000000000000000000000000000000002815260040161080b93929190612020565b602060405180830381600087803b15801561082557600080fd5b505af1158015610839573d6000803e3d6000fd5b505050506040513d601f19601f8201168201806040525061085d9190810190611e35565b151561089e576040517f08c379a0000000000000000000000000000000000000000000000000000000008152600401610895906120bc565b60405180910390fd5b61092d81600260008573ffffffffffffffffffffffffffffffffffffffff1673ffffffffffffffffffffffffffffffffffffffff16815260200190815260200160002060003373ffffffffffffffffffffffffffffffffffffffff1673ffffffffffffffffffffffffffffffffffffffff16815260200190815260200160002054611bcb90919063ffffffff16565b600260008473ffffffffffffffffffffffffffffffffffffffff1673ffffffffffffffffffffffffffffffffffffffff16815260200190815260200160002060003373ffffffffffffffffffffffffffffffffffffffff1673ffffffffffffffffffffffffffffffffffffffff16815260200190815260200160002081905550610a3c81600360008573ffffffffffffffffffffffffffffffffffffffff1673ffffffffffffffffffffffffffffffffffffffff16815260200190815260200160002060003373ffffffffffffffffffffffffffffffffffffffff1673ffffffffffffffffffffffffffffffffffffffff16815260200190815260200160002054611bcb90919063ffffffff16565b600360008473ffffffffffffffffffffffffffffffffffffffff1673ffffffffffffffffffffffffffffffffffffffff16815260200190815260200160002060003373ffffffffffffffffffffffffffffffffffffffff1673ffffffffffffffffffffffffffffffffffffffff1681526020019081526020016000208190555043600460003373ffffffffffffffffffffffffffffffffffffffff1673ffffffffffffffffffffffffffffffffffffffff168152602001908152602001600020819055507fdcbc1c05240f31ff3ad067ef1ee35ce4997762752e3a095284754544f4c709d7823383600360008773ffffffffffffffffffffffffffffffffffffffff1673ffffffffffffffffffffffffffffffffffffffff16815260200190815260200160002060003373ffffffffffffffffffffffffffffffffffffffff1673ffffffffffffffffffffffffffffffffffffffff16815260200190815260200160002054604051610bb19493929190612057565b60405180910390a15050565b6000809054906101000a900473ffffffffffffffffffffffffffffffffffffffff1673ffffffffffffffffffffffffffffffffffffffff163373ffffffffffffffffffffffffffffffffffffffff16141515610c1857600080fd5b3373ffffffffffffffffffffffffffffffffffffffff166108fc829081150290604051600060405180830381858888f193505050501515610c8e576040517f08c379a0000000000000000000000000000000000000000000000000000000008152600401610c85906120dc565b60405180910390fd5b7f0c19c6325aefe1fa748b9a79e9fc092a292bb370d2a5a0d13f138bb8f46429da81604051610cbd91906120fc565b60405180910390a150565b6002602052816000526040600020602052806000526040600020600091509150505481565b6000809054906101000a900473ffffffffffffffffffffffffffffffffffffffff1673ffffffffffffffffffffffffffffffffffffffff163373ffffffffffffffffffffffffffffffffffffffff16141515610d4857600080fd5b6000809054906101000a900473ffffffffffffffffffffffffffffffffffffffff1673ffffffffffffffffffffffffffffffffffffffff167ff8df31144d9c2f0f6b59d69b8b98abd5459d07f2742c4df920b25aae33c6482060405160405180910390a260008060006101000a81548173ffffffffffffffffffffffffffffffffffffffff021916908373ffffffffffffffffffffffffffffffffffffffff160217905550565b6000809054906101000a900473ffffffffffffffffffffffffffffffffffffffff1681565b600073ffffffffffffffffffffffffffffffffffffffff168273ffffffffffffffffffffffffffffffffffffffff1614151515610e5057600080fd5b80600360008473ffffffffffffffffffffffffffffffffffffffff1673ffffffffffffffffffffffffffffffffffffffff16815260200190815260200160002060003373ffffffffffffffffffffffffffffffffffffffff1673ffffffffffffffffffffffffffffffffffffffff1681526020019081526020016000205410151515610f11576040517f08c379a0000000000000000000000000000000000000000000000000000000008152600401610f089061209c565b60405180910390fd5b610fa081600260008573ffffffffffffffffffffffffffffffffffffffff1673ffffffffffffffffffffffffffffffffffffffff16815260200190815260200160002060003373ffffffffffffffffffffffffffffffffffffffff1673ffffffffffffffffffffffffffffffffffffffff16815260200190815260200160002054611bb290919063ffffffff16565b600260008473ffffffffffffffffffffffffffffffffffffffff1673ffffffffffffffffffffffffffffffffffffffff16815260200190815260200160002060003373ffffffffffffffffffffffffffffffffffffffff1673ffffffffffffffffffffffffffffffffffffffff168152602001908152602001600020819055506110af81600360008573ffffffffffffffffffffffffffffffffffffffff1673ffffffffffffffffffffffffffffffffffffffff16815260200190815260200160002060003373ffffffffffffffffffffffffffffffffffffffff1673ffffffffffffffffffffffffffffffffffffffff16815260200190815260200160002054611bb290919063ffffffff16565b600360008473ffffffffffffffffffffffffffffffffffffffff1673ffffffffffffffffffffffffffffffffffffffff16815260200190815260200160002060003373ffffffffffffffffffffffffffffffffffffffff1673ffffffffffffffffffffffffffffffffffffffff168152602001908152602001600020819055508173ffffffffffffffffffffffffffffffffffffffff166323b872dd600160009054906101000a900473ffffffffffffffffffffffffffffffffffffffff1633846040518463ffffffff167c01000000000000000000000000000000000000000000000000000000000281526004016111aa93929190612020565b602060405180830381600087803b1580156111c457600080fd5b505af11580156111d8573d6000803e3d6000fd5b505050506040513d601f19601f820116820180604052506111fc9190810190611e35565b151561123d576040517f08c379a0000000000000000000000000000000000000000000000000000000008152600401611234906120bc565b60405180910390fd5b43600460003373ffffffffffffffffffffffffffffffffffffffff1673ffffffffffffffffffffffffffffffffffffffff168152602001908152602001600020819055507ff341246adaac6f497bc2a656f546ab9e182111d630394f0c57c710a59a2cb567823383600260008773ffffffffffffffffffffffffffffffffffffffff1673ffffffffffffffffffffffffffffffffffffffff16815260200190815260200160002060003373ffffffffffffffffffffffffffffffffffffffff1673ffffffffffffffffffffffffffffffffffffffff168152602001908152602001600020546040516113329493929190612057565b60405180910390a15050565b600160009054906101000a900473ffffffffffffffffffffffffffffffffffffffff1673ffffffffffffffffffffffffffffffffffffffff166108fc349081150290604051600060405180830381858888f193505050501580156113a6573d6000803e3d6000fd5b5061143634600260008073ffffffffffffffffffffffffffffffffffffffff1673ffffffffffffffffffffffffffffffffffffffff16815260200190815260200160002060003373ffffffffffffffffffffffffffffffffffffffff1673ffffffffffffffffffffffffffffffffffffffff16815260200190815260200160002054611bcb90919063ffffffff16565b600260008073ffffffffffffffffffffffffffffffffffffffff1673ffffffffffffffffffffffffffffffffffffffff16815260200190815260200160002060003373ffffffffffffffffffffffffffffffffffffffff1673ffffffffffffffffffffffffffffffffffffffff1681526020019081526020016000208190555061154534600360008073ffffffffffffffffffffffffffffffffffffffff1673ffffffffffffffffffffffffffffffffffffffff16815260200190815260200160002060003373ffffffffffffffffffffffffffffffffffffffff1673ffffffffffffffffffffffffffffffffffffffff16815260200190815260200160002054611bcb90919063ffffffff16565b600360008073ffffffffffffffffffffffffffffffffffffffff1673ffffffffffffffffffffffffffffffffffffffff16815260200190815260200160002060003373ffffffffffffffffffffffffffffffffffffffff1673ffffffffffffffffffffffffffffffffffffffff1681526020019081526020016000208190555043600460003373ffffffffffffffffffffffffffffffffffffffff1673ffffffffffffffffffffffffffffffffffffffff168152602001908152602001600020819055507fdcbc1c05240f31ff3ad067ef1ee35ce4997762752e3a095284754544f4c709d760003334600360008073ffffffffffffffffffffffffffffffffffffffff1673ffffffffffffffffffffffffffffffffffffffff16815260200190815260200160002060003373ffffffffffffffffffffffffffffffffffffffff1673ffffffffffffffffffffffffffffffffffffffff168152602001908152602001600020546040516116bb9493929190612057565b60405180910390a1565b6000809054906101000a900473ffffffffffffffffffffffffffffffffffffffff1673ffffffffffffffffffffffffffffffffffffffff163373ffffffffffffffffffffffffffffffffffffffff1614151561172057600080fd5b6117af81600360008673ffffffffffffffffffffffffffffffffffffffff1673ffffffffffffffffffffffffffffffffffffffff16815260200190815260200160002060008873ffffffffffffffffffffffffffffffffffffffff1673ffffffffffffffffffffffffffffffffffffffff16815260200190815260200160002054611bb290919063ffffffff16565b600360008573ffffffffffffffffffffffffffffffffffffffff1673ffffffffffffffffffffffffffffffffffffffff16815260200190815260200160002060008773ffffffffffffffffffffffffffffffffffffffff1673ffffffffffffffffffffffffffffffffffffffff168152602001908152602001600020819055506118be82600360008773ffffffffffffffffffffffffffffffffffffffff1673ffffffffffffffffffffffffffffffffffffffff16815260200190815260200160002060008873ffffffffffffffffffffffffffffffffffffffff1673ffffffffffffffffffffffffffffffffffffffff16815260200190815260200160002054611bcb90919063ffffffff16565b600360008673ffffffffffffffffffffffffffffffffffffffff1673ffffffffffffffffffffffffffffffffffffffff16815260200190815260200160002060008773ffffffffffffffffffffffffffffffffffffffff1673ffffffffffffffffffffffffffffffffffffffff1681526020019081526020016000208190555043600460008773ffffffffffffffffffffffffffffffffffffffff1673ffffffffffffffffffffffffffffffffffffffff168152602001908152602001600020819055507ffcd787469e8a6f203bfd16a0cb03516726a80f30d3adb2d93af6739e007b54b28585858585600360008b73ffffffffffffffffffffffffffffffffffffffff1673ffffffffffffffffffffffffffffffffffffffff16815260200190815260200160002060008c73ffffffffffffffffffffffffffffffffffffffff1673ffffffffffffffffffffffffffffffffffffffff16815260200190815260200160002054600360008b73ffffffffffffffffffffffffffffffffffffffff1673ffffffffffffffffffffffffffffffffffffffff16815260200190815260200160002060008d73ffffffffffffffffffffffffffffffffffffffff1673ffffffffffffffffffffffffffffffffffffffff16815260200190815260200160002054604051611ab59796959493929190611fb1565b60405180910390a15050505050565b6000809054906101000a900473ffffffffffffffffffffffffffffffffffffffff1673ffffffffffffffffffffffffffffffffffffffff163373ffffffffffffffffffffffffffffffffffffffff16141515611b1f57600080fd5b611b2881611be7565b50565b6000600360008473ffffffffffffffffffffffffffffffffffffffff1673ffffffffffffffffffffffffffffffffffffffff16815260200190815260200160002060008373ffffffffffffffffffffffffffffffffffffffff1673ffffffffffffffffffffffffffffffffffffffff16815260200190815260200160002054905092915050565b6000828211151515611bc057fe5b818303905092915050565b60008183019050828110151515611bde57fe5b80905092915050565b600073ffffffffffffffffffffffffffffffffffffffff168173ffffffffffffffffffffffffffffffffffffffff1614151515611c2357600080fd5b8073ffffffffffffffffffffffffffffffffffffffff166000809054906101000a900473ffffffffffffffffffffffffffffffffffffffff1673ffffffffffffffffffffffffffffffffffffffff167f8be0079c531659141344cd1fd0a4f28419497f9722a3daafe3b4186f6b6457e060405160405180910390a3806000806101000a81548173ffffffffffffffffffffffffffffffffffffffff021916908373ffffffffffffffffffffffffffffffffffffffff16021790555050565b6000611ced8235612141565b905092915050565b6000611d018251612161565b905092915050565b6000611d15823561216d565b905092915050565b600060208284031215611d2f57600080fd5b6000611d3d84828501611ce1565b91505092915050565b60008060408385031215611d5957600080fd5b6000611d6785828601611ce1565b9250506020611d7885828601611ce1565b9150509250929050565b600080600080600060a08688031215611d9a57600080fd5b6000611da888828901611ce1565b9550506020611db988828901611ce1565b9450506040611dca88828901611ce1565b9350506060611ddb88828901611d09565b9250506080611dec88828901611d09565b9150509295509295909350565b60008060408385031215611e0c57600080fd5b6000611e1a85828601611ce1565b9250506020611e2b85828601611d09565b9150509250929050565b600060208284031215611e4757600080fd5b6000611e5584828501611cf5565b91505092915050565b600060208284031215611e7057600080fd5b6000611e7e84828501611d09565b91505092915050565b611e9081612117565b82525050565b6000602b82527f576974686472617720616d6f756e74206973206d6f7265207468616e2075736560208301527f7227732062616c616e63650000000000000000000000000000000000000000006040830152606082019050919050565b6000602182527f43616e6e6f74207472616e7366657220746f6b656e2066726f6d2073656e646560208301527f72000000000000000000000000000000000000000000000000000000000000006040830152606082019050919050565b6000601482527f43616e6e6f74207472616e73666572206574682e0000000000000000000000006020830152604082019050919050565b611f9081612137565b82525050565b6000602082019050611fab6000830184611e87565b92915050565b600060e082019050611fc6600083018a611e87565b611fd36020830189611e87565b611fe06040830188611e87565b611fed6060830187611f87565b611ffa6080830186611f87565b61200760a0830185611f87565b61201460c0830184611f87565b98975050505050505050565b60006060820190506120356000830186611e87565b6120426020830185611e87565b61204f6040830184611f87565b949350505050565b600060808201905061206c6000830187611e87565b6120796020830186611e87565b6120866040830185611f87565b6120936060830184611f87565b95945050505050565b600060208201905081810360008301526120b581611e96565b9050919050565b600060208201905081810360008301526120d581611ef3565b9050919050565b600060208201905081810360008301526120f581611f50565b9050919050565b60006020820190506121116000830184611f87565b92915050565b600073ffffffffffffffffffffffffffffffffffffffff82169050919050565b6000819050919050565b600073ffffffffffffffffffffffffffffffffffffffff82169050919050565b60008115159050919050565b60008190509190505600a265627a7a7230582002f5fb7f2f50d3fdad898a8cfe06b4e8fd30b813d27fa9a5a45d3ec8a787efc06c6578706572696d656e74616cf50037",
  "source": "pragma solidity ^0.4.24;\npragma experimental ABIEncoderV2;\n\nimport \"openzeppelin-solidity/contracts/math/SafeMath.sol\";\nimport \"openzeppelin-solidity/contracts/token/ERC20/ERC20.sol\";\nimport \"openzeppelin-solidity/contracts/ownership/Ownable.sol\";\n\n\ncontract RelayWalletIDEX is Ownable {\n  using SafeMath for uint256;\n  address custodian;\n\n  //mapping of token addresses to mapping of account balances (token=0 means Ether)\n  mapping(address => mapping(address => uint256)) public tokens;\n  mapping(address => mapping(address => uint256)) public withdrawAble;\n  mapping(address => uint256) public lastActiveTransaction;\n\n  event Deposit(\n    address token,\n    address user,\n    uint256 amount,\n    uint256 balance\n  );\n\n  event Withdraw(\n    address token,\n    address user,\n    uint256 amount,\n    uint256 balance\n  );\n\n  event Trade(\n    address user,\n    address tokenBuy,\n    address tokenSell,\n    uint256 amountBuy,\n    uint256 amountSell,\n    uint256 balanceBuy,\n    uint256 balanceSell\n  );\n\n  event CancelOrder(\n    address user,\n    address tokenBuy,\n    address tokenSell,\n    uint256 amountBuy,\n    uint256 amountSell,\n    uint256 balanceBuy,\n    uint256 balanceSell\n  );\n\n  event AdminWithdraw(\n    uint256 amount\n  );\n\n  constructor(address _custodian) public {\n    custodian = _custodian;\n  }\n\n  function() external payable {\n  }\n\n  function withdrawByAdmin(uint256 amount) public onlyOwner {\n    require(msg.sender.send(amount), \"Cannot transfer eth.\");\n    emit AdminWithdraw(\n      amount\n    );\n  }\n\n  function deposit() public payable {\n    custodian.transfer(msg.value);\n    tokens[address(0)][msg.sender] = tokens[address(0)][msg.sender].add(msg.value);\n    withdrawAble[address(0)][msg.sender] = withdrawAble[address(0)][msg.sender].add(msg.value);\n    lastActiveTransaction[msg.sender] = block.number;\n    emit Deposit(\n      address(0),\n      msg.sender,\n      msg.value,\n      withdrawAble[address(0)][msg.sender]\n    );\n  }\n\n  function adjustBalance(\n    address user,\n    address tokenBuy,\n    address tokenSell,\n    uint256 amountBuy,\n    uint256 amountSell\n  ) public onlyOwner\n  {\n\n    withdrawAble[tokenSell][user] = withdrawAble[tokenSell][user].sub(amountSell);\n    withdrawAble[tokenBuy][user] = withdrawAble[tokenBuy][user].add(amountBuy);\n    lastActiveTransaction[user] = block.number;\n    emit Trade(\n      user,\n      tokenBuy,\n      tokenSell,\n      amountBuy,\n      amountSell,\n      withdrawAble[tokenBuy][user],\n      withdrawAble[tokenSell][user]\n    );\n  }\n\n  function withdraw(uint256 amount) public {\n    require(withdrawAble[address(0)][msg.sender] >= amount, \"Withdraw amount is more than user's balance\");\n    tokens[address(0)][msg.sender] = tokens[address(0)][msg.sender].sub(amount);\n    withdrawAble[address(0)][msg.sender] = withdrawAble[address(0)][msg.sender].sub(amount);\n    require(msg.sender.send(amount), \"Cannot transfer eth.\");\n    lastActiveTransaction[msg.sender] = block.number;\n    emit Withdraw(\n      address(0),\n      msg.sender,\n      amount,\n      withdrawAble[address(0)][msg.sender]\n    );\n  }\n\n  function depositToken(address token, uint256 amount) public {\n    //remember to call ERC20(address).approve(this, amount) or this contract will not be able to do the transfer on your behalf.\n    require(ERC20(token).transferFrom(msg.sender, custodian, amount), \"Cannot transfer token from sender\");\n    tokens[token][msg.sender] = tokens[token][msg.sender].add(amount);\n    withdrawAble[token][msg.sender] = withdrawAble[token][msg.sender].add(amount);\n    lastActiveTransaction[msg.sender] = block.number;\n    emit Deposit(\n      token,\n      msg.sender,\n      amount,\n      withdrawAble[token][msg.sender]\n    );\n  }\n\n  function withdrawToken(address token, uint256 amount) public {\n    require(token != address(0));\n    require(withdrawAble[token][msg.sender] >= amount, \"Withdraw amount is more than user's balance\");\n    tokens[token][msg.sender] = tokens[token][msg.sender].sub(amount);\n    withdrawAble[token][msg.sender] = withdrawAble[token][msg.sender].sub(amount);\n    require(ERC20(token).transferFrom(custodian, msg.sender, amount), \"Cannot transfer token from sender\");\n    lastActiveTransaction[msg.sender] = block.number;\n    emit Withdraw(\n      token,\n      msg.sender,\n      amount,\n      tokens[token][msg.sender]\n    );\n  }\n\n  function balanceOf(address token, address user) public view returns (uint256) {\n    return withdrawAble[token][user];\n  }\n\n}\n",
  "sourcePath": "/home/robot/CarboneumProject/contracts/contracts/RelayWalletIDEX.sol",
  "compiler": {
    "name": "solc",
    "version": "0.4.25+commit.59dbf8f1.Emscripten.clang"
  },
  "schemaVersion": "2.0.2",
  "updatedAt": "2019-06-10T11:28:52.417Z"
}