{
  "contractName": "SocialTrading",
  "abi": [
    {
      "constant": true,
      "inputs": [
        {
          "name": "",
          "type": "address"
        },
        {
          "name": "",
          "type": "uint256"
        }
      ],
      "name": "leaderToFollowersIndex",
      "outputs": [
        {
          "name": "",
          "type": "address"
        }
      ],
      "payable": false,
      "stateMutability": "view",
      "type": "function"
    },
    {
      "constant": true,
      "inputs": [],
      "name": "feeToken",
      "outputs": [
        {
          "name": "",
          "type": "address"
        }
      ],
      "payable": false,
      "stateMutability": "view",
      "type": "function"
    },
    {
      "constant": true,
      "inputs": [
        {
          "name": "",
          "type": "address"
        },
        {
          "name": "",
          "type": "uint256"
        }
      ],
      "name": "followerToLeadersIndex",
      "outputs": [
        {
          "name": "",
          "type": "address"
        }
      ],
      "payable": false,
      "stateMutability": "view",
      "type": "function"
    },
    {
      "constant": false,
      "inputs": [],
      "name": "renounceOwnership",
      "outputs": [],
      "payable": false,
      "stateMutability": "nonpayable",
      "type": "function"
    },
    {
      "constant": true,
      "inputs": [],
      "name": "owner",
      "outputs": [
        {
          "name": "",
          "type": "address"
        }
      ],
      "payable": false,
      "stateMutability": "view",
      "type": "function"
    },
    {
      "constant": true,
      "inputs": [
        {
          "name": "",
          "type": "address"
        },
        {
          "name": "",
          "type": "address"
        }
      ],
      "name": "leaderToFollowers",
      "outputs": [
        {
          "name": "",
          "type": "uint8"
        }
      ],
      "payable": false,
      "stateMutability": "view",
      "type": "function"
    },
    {
      "constant": true,
      "inputs": [
        {
          "name": "",
          "type": "address"
        },
        {
          "name": "",
          "type": "address"
        }
      ],
      "name": "followerToLeaders",
      "outputs": [
        {
          "name": "leader",
          "type": "address"
        },
        {
          "name": "percentage",
          "type": "uint256"
        },
        {
          "name": "index",
          "type": "uint256"
        }
      ],
      "payable": false,
      "stateMutability": "view",
      "type": "function"
    },
    {
      "constant": true,
      "inputs": [
        {
          "name": "",
          "type": "address"
        }
      ],
      "name": "relays",
      "outputs": [
        {
          "name": "",
          "type": "bool"
        }
      ],
      "payable": false,
      "stateMutability": "view",
      "type": "function"
    },
    {
      "constant": true,
      "inputs": [],
      "name": "feeWallet",
      "outputs": [
        {
          "name": "",
          "type": "address"
        }
      ],
      "payable": false,
      "stateMutability": "view",
      "type": "function"
    },
    {
      "constant": false,
      "inputs": [
        {
          "name": "_newOwner",
          "type": "address"
        }
      ],
      "name": "transferOwnership",
      "outputs": [],
      "payable": false,
      "stateMutability": "nonpayable",
      "type": "function"
    },
    {
      "inputs": [
        {
          "name": "_feeWallet",
          "type": "address"
        },
        {
          "name": "_feeToken",
          "type": "address"
        }
      ],
      "payable": false,
      "stateMutability": "nonpayable",
      "type": "constructor"
    },
    {
      "payable": false,
      "stateMutability": "nonpayable",
      "type": "fallback"
    },
    {
      "anonymous": false,
      "inputs": [
        {
          "indexed": true,
          "name": "leader",
          "type": "address"
        },
        {
          "indexed": true,
          "name": "follower",
          "type": "address"
        },
        {
          "indexed": false,
          "name": "percentage",
          "type": "uint256"
        }
      ],
      "name": "Follow",
      "type": "event"
    },
    {
      "anonymous": false,
      "inputs": [
        {
          "indexed": true,
          "name": "leader",
          "type": "address"
        },
        {
          "indexed": true,
          "name": "follower",
          "type": "address"
        }
      ],
      "name": "UnFollow",
      "type": "event"
    },
    {
      "anonymous": false,
      "inputs": [
        {
          "indexed": true,
          "name": "relay",
          "type": "address"
        }
      ],
      "name": "AddRelay",
      "type": "event"
    },
    {
      "anonymous": false,
      "inputs": [
        {
          "indexed": true,
          "name": "relay",
          "type": "address"
        }
      ],
      "name": "RemoveRelay",
      "type": "event"
    },
    {
      "anonymous": false,
      "inputs": [
        {
          "indexed": true,
          "name": "leader",
          "type": "address"
        },
        {
          "indexed": true,
          "name": "follower",
          "type": "address"
        },
        {
          "indexed": true,
          "name": "relay",
          "type": "address"
        },
        {
          "indexed": false,
          "name": "rewardAndFee",
          "type": "uint256"
        },
        {
          "indexed": false,
          "name": "leaderOpenOrderHash",
          "type": "bytes32"
        },
        {
          "indexed": false,
          "name": "leaderCloseOrderHash",
          "type": "bytes32"
        },
        {
          "indexed": false,
          "name": "followerOpenOrderHash",
          "type": "bytes32"
        },
        {
          "indexed": false,
          "name": "followercloseOrderHash",
          "type": "bytes32"
        }
      ],
      "name": "PaidReward",
      "type": "event"
    },
    {
      "anonymous": false,
      "inputs": [
        {
          "indexed": true,
          "name": "previousOwner",
          "type": "address"
        }
      ],
      "name": "OwnershipRenounced",
      "type": "event"
    },
    {
      "anonymous": false,
      "inputs": [
        {
          "indexed": true,
          "name": "previousOwner",
          "type": "address"
        },
        {
          "indexed": true,
          "name": "newOwner",
          "type": "address"
        }
      ],
      "name": "OwnershipTransferred",
      "type": "event"
    },
    {
      "constant": false,
      "inputs": [
        {
          "name": "_leader",
          "type": "address"
        },
        {
          "name": "_percentage",
          "type": "uint256"
        }
      ],
      "name": "follow",
      "outputs": [],
      "payable": false,
      "stateMutability": "nonpayable",
      "type": "function"
    },
    {
      "constant": false,
      "inputs": [
        {
          "name": "_leader",
          "type": "address"
        }
      ],
      "name": "unfollow",
      "outputs": [],
      "payable": false,
      "stateMutability": "nonpayable",
      "type": "function"
    },
    {
      "constant": true,
      "inputs": [
        {
          "name": "_user",
          "type": "address"
        }
      ],
      "name": "getFriends",
      "outputs": [
        {
          "name": "",
          "type": "address[]"
        }
      ],
      "payable": false,
      "stateMutability": "view",
      "type": "function"
    },
    {
      "constant": true,
      "inputs": [
        {
          "name": "_user",
          "type": "address"
        }
      ],
      "name": "getFollowers",
      "outputs": [
        {
          "name": "",
          "type": "address[]"
        }
      ],
      "payable": false,
      "stateMutability": "view",
      "type": "function"
    },
    {
      "constant": false,
      "inputs": [
        {
          "name": "_relay",
          "type": "address"
        }
      ],
      "name": "registerRelay",
      "outputs": [],
      "payable": false,
      "stateMutability": "nonpayable",
      "type": "function"
    },
    {
      "constant": false,
      "inputs": [
        {
          "name": "_relay",
          "type": "address"
        }
      ],
      "name": "removeRelay",
      "outputs": [],
      "payable": false,
      "stateMutability": "nonpayable",
      "type": "function"
    },
    {
      "constant": false,
      "inputs": [
        {
          "name": "_leader",
          "type": "address"
        },
        {
          "name": "_follower",
          "type": "address"
        },
        {
          "name": "_reward",
          "type": "uint256"
        },
        {
          "name": "_relayFee",
          "type": "uint256"
        },
        {
          "name": "_orderHashes",
          "type": "bytes32[4]"
        }
      ],
      "name": "distributeReward",
      "outputs": [],
      "payable": false,
      "stateMutability": "nonpayable",
      "type": "function"
    }
  ],
  "bytecode": "0x608060405234801561001057600080fd5b506040516040806124718339810180604052810190808051906020019092919080519060200190929190505050336000806101000a81548173ffffffffffffffffffffffffffffffffffffffff021916908373ffffffffffffffffffffffffffffffffffffffff16021790555081600260006101000a81548173ffffffffffffffffffffffffffffffffffffffff021916908373ffffffffffffffffffffffffffffffffffffffff16021790555080600160006101000a81548173ffffffffffffffffffffffffffffffffffffffff021916908373ffffffffffffffffffffffffffffffffffffffff1602179055505050612361806101106000396000f3006080604052600436106100f1576000357c0100000000000000000000000000000000000000000000000000000000900463ffffffff168063015a4ead146101035780630ec83370146101465780635cbb7caa146101935780635f4daa1c1461022b578063647846a5146102b85780636515485c1461030f578063715018a61461039c5780638da5cb5b146103b35780638fa02c751461040a578063ba81626a14610487578063c2fe202214610538578063cb8d406f146105d0578063cd151e9a1461062b578063d3b1f1301461066e578063d83bf1a7146106ef578063f25f4b5614610732578063f2fde38b14610789575b3480156100fd57600080fd5b50600080fd5b34801561010f57600080fd5b50610144600480360381019080803573ffffffffffffffffffffffffffffffffffffffff1690602001909291905050506107cc565b005b34801561015257600080fd5b50610191600480360381019080803573ffffffffffffffffffffffffffffffffffffffff169060200190929190803590602001909291905050506107d9565b005b34801561019f57600080fd5b506101d4600480360381019080803573ffffffffffffffffffffffffffffffffffffffff169060200190929190505050610bea565b6040518080602001828103825283818151815260200191508051906020019060200280838360005b838110156102175780820151818401526020810190506101fc565b505050509050019250505060405180910390f35b34801561023757600080fd5b50610276600480360381019080803573ffffffffffffffffffffffffffffffffffffffff16906020019092919080359060200190929190505050610d98565b604051808273ffffffffffffffffffffffffffffffffffffffff1673ffffffffffffffffffffffffffffffffffffffff16815260200191505060405180910390f35b3480156102c457600080fd5b506102cd610de5565b604051808273ffffffffffffffffffffffffffffffffffffffff1673ffffffffffffffffffffffffffffffffffffffff16815260200191505060405180910390f35b34801561031b57600080fd5b5061035a600480360381019080803573ffffffffffffffffffffffffffffffffffffffff16906020019092919080359060200190929190505050610e0b565b604051808273ffffffffffffffffffffffffffffffffffffffff1673ffffffffffffffffffffffffffffffffffffffff16815260200191505060405180910390f35b3480156103a857600080fd5b506103b1610e58565b005b3480156103bf57600080fd5b506103c8610f5a565b604051808273ffffffffffffffffffffffffffffffffffffffff1673ffffffffffffffffffffffffffffffffffffffff16815260200191505060405180910390f35b34801561041657600080fd5b5061046b600480360381019080803573ffffffffffffffffffffffffffffffffffffffff169060200190929190803573ffffffffffffffffffffffffffffffffffffffff169060200190929190505050610f7f565b604051808260ff1660ff16815260200191505060405180910390f35b34801561049357600080fd5b506104e8600480360381019080803573ffffffffffffffffffffffffffffffffffffffff169060200190929190803573ffffffffffffffffffffffffffffffffffffffff169060200190929190505050610fae565b604051808473ffffffffffffffffffffffffffffffffffffffff1673ffffffffffffffffffffffffffffffffffffffff168152602001838152602001828152602001935050505060405180910390f35b34801561054457600080fd5b50610579600480360381019080803573ffffffffffffffffffffffffffffffffffffffff169060200190929190505050611005565b6040518080602001828103825283818151815260200191508051906020019060200280838360005b838110156105bc5780820151818401526020810190506105a1565b505050509050019250505060405180910390f35b3480156105dc57600080fd5b50610611600480360381019080803573ffffffffffffffffffffffffffffffffffffffff1690602001909291905050506111b3565b604051808215151515815260200191505060405180910390f35b34801561063757600080fd5b5061066c600480360381019080803573ffffffffffffffffffffffffffffffffffffffff1690602001909291905050506111d3565b005b34801561067a57600080fd5b506106ed600480360381019080803573ffffffffffffffffffffffffffffffffffffffff169060200190929190803573ffffffffffffffffffffffffffffffffffffffff1690602001909291908035906020019092919080359060200190929190806080019091929192905050506112cc565b005b3480156106fb57600080fd5b50610730600480360381019080803573ffffffffffffffffffffffffffffffffffffffff16906020019092919050505061190c565b005b34801561073e57600080fd5b50610747611a05565b604051808273ffffffffffffffffffffffffffffffffffffffff1673ffffffffffffffffffffffffffffffffffffffff16815260200191505060405180910390f35b34801561079557600080fd5b506107ca600480360381019080803573ffffffffffffffffffffffffffffffffffffffff169060200190929190505050611a2b565b005b6107d63382611a92565b50565b60008068056bc75e2d63100000836107f03361207c565b011115151561088d576040517f08c379a00000000000000000000000000000000000000000000000000000000081526004018080602001828103825260248152602001807f466f6c6c6f77696e672070657263656e74616765206d6f7265207468616e203181526020017f3030252e0000000000000000000000000000000000000000000000000000000081525060400191505060405180910390fd5b6001600460003373ffffffffffffffffffffffffffffffffffffffff1673ffffffffffffffffffffffffffffffffffffffff1681526020019081526020016000208590806001815401808255809150509060018203906000526020600020016000909192909190916101000a81548173ffffffffffffffffffffffffffffffffffffffff021916908373ffffffffffffffffffffffffffffffffffffffff1602179055500391506060604051908101604052808573ffffffffffffffffffffffffffffffffffffffff1681526020018481526020018360ff16815250600360003373ffffffffffffffffffffffffffffffffffffffff1673ffffffffffffffffffffffffffffffffffffffff16815260200190815260200160002060008673ffffffffffffffffffffffffffffffffffffffff1673ffffffffffffffffffffffffffffffffffffffff16815260200190815260200160002060008201518160000160006101000a81548173ffffffffffffffffffffffffffffffffffffffff021916908373ffffffffffffffffffffffffffffffffffffffff16021790555060208201518160010155604082015181600201559050506001600660008673ffffffffffffffffffffffffffffffffffffffff1673ffffffffffffffffffffffffffffffffffffffff1681526020019081526020016000203390806001815401808255809150509060018203906000526020600020016000909192909190916101000a81548173ffffffffffffffffffffffffffffffffffffffff021916908373ffffffffffffffffffffffffffffffffffffffff16021790555003905080600560008673ffffffffffffffffffffffffffffffffffffffff1673ffffffffffffffffffffffffffffffffffffffff16815260200190815260200160002060003373ffffffffffffffffffffffffffffffffffffffff1673ffffffffffffffffffffffffffffffffffffffff16815260200190815260200160002060006101000a81548160ff021916908360ff1602179055503373ffffffffffffffffffffffffffffffffffffffff168473ffffffffffffffffffffffffffffffffffffffff167f746fcfa151ee3943ec31afc7f9fcd10ff63205b70c789b7aa01117eca7a6281f856040518082815260200191505060405180910390a350505050565b606080600080600460008673ffffffffffffffffffffffffffffffffffffffff1673ffffffffffffffffffffffffffffffffffffffff16815260200190815260200160002080549050604051908082528060200260200182016040528015610c615781602001602082028038833980820191505090505b50925060009150600090505b600460008673ffffffffffffffffffffffffffffffffffffffff1673ffffffffffffffffffffffffffffffffffffffff16815260200190815260200160002080549050811015610d8d57600460008673ffffffffffffffffffffffffffffffffffffffff1673ffffffffffffffffffffffffffffffffffffffff16815260200190815260200160002081815481101515610d0357fe5b9060005260206000200160009054906101000a900473ffffffffffffffffffffffffffffffffffffffff168383815181101515610d3c57fe5b9060200190602002019073ffffffffffffffffffffffffffffffffffffffff16908173ffffffffffffffffffffffffffffffffffffffff168152505081806001019250508080600101915050610c6d565b829350505050919050565b600660205281600052604060002081815481101515610db357fe5b906000526020600020016000915091509054906101000a900473ffffffffffffffffffffffffffffffffffffffff1681565b600160009054906101000a900473ffffffffffffffffffffffffffffffffffffffff1681565b600460205281600052604060002081815481101515610e2657fe5b906000526020600020016000915091509054906101000a900473ffffffffffffffffffffffffffffffffffffffff1681565b6000809054906101000a900473ffffffffffffffffffffffffffffffffffffffff1673ffffffffffffffffffffffffffffffffffffffff163373ffffffffffffffffffffffffffffffffffffffff16141515610eb357600080fd5b6000809054906101000a900473ffffffffffffffffffffffffffffffffffffffff1673ffffffffffffffffffffffffffffffffffffffff167ff8df31144d9c2f0f6b59d69b8b98abd5459d07f2742c4df920b25aae33c6482060405160405180910390a260008060006101000a81548173ffffffffffffffffffffffffffffffffffffffff021916908373ffffffffffffffffffffffffffffffffffffffff160217905550565b6000809054906101000a900473ffffffffffffffffffffffffffffffffffffffff1681565b60056020528160005260406000206020528060005260406000206000915091509054906101000a900460ff1681565b6003602052816000526040600020602052806000526040600020600091509150508060000160009054906101000a900473ffffffffffffffffffffffffffffffffffffffff16908060010154908060020154905083565b606080600080600660008673ffffffffffffffffffffffffffffffffffffffff1673ffffffffffffffffffffffffffffffffffffffff1681526020019081526020016000208054905060405190808252806020026020018201604052801561107c5781602001602082028038833980820191505090505b50925060009150600090505b600660008673ffffffffffffffffffffffffffffffffffffffff1673ffffffffffffffffffffffffffffffffffffffff168152602001908152602001600020805490508110156111a857600660008673ffffffffffffffffffffffffffffffffffffffff1673ffffffffffffffffffffffffffffffffffffffff1681526020019081526020016000208181548110151561111e57fe5b9060005260206000200160009054906101000a900473ffffffffffffffffffffffffffffffffffffffff16838381518110151561115757fe5b9060200190602002019073ffffffffffffffffffffffffffffffffffffffff16908173ffffffffffffffffffffffffffffffffffffffff168152505081806001019250508080600101915050611088565b829350505050919050565b60076020528060005260406000206000915054906101000a900460ff1681565b6000809054906101000a900473ffffffffffffffffffffffffffffffffffffffff1673ffffffffffffffffffffffffffffffffffffffff163373ffffffffffffffffffffffffffffffffffffffff1614151561122e57600080fd5b6000600760008373ffffffffffffffffffffffffffffffffffffffff1673ffffffffffffffffffffffffffffffffffffffff16815260200190815260200160002060006101000a81548160ff0219169083151502179055508073ffffffffffffffffffffffffffffffffffffffff167ff12c0206b3e52e0fe51db0ee950cd00d656024f71d6d13d09dd94a0abac202fa60405160405180910390a250565b600080600080339350600760008573ffffffffffffffffffffffffffffffffffffffff1673ffffffffffffffffffffffffffffffffffffffff16815260200190815260200160002060009054906101000a900460ff16151561132d57600080fd5b600160009054906101000a900473ffffffffffffffffffffffffffffffffffffffff1673ffffffffffffffffffffffffffffffffffffffff1663dd62ed3e89306040518363ffffffff167c0100000000000000000000000000000000000000000000000000000000028152600401808373ffffffffffffffffffffffffffffffffffffffff1673ffffffffffffffffffffffffffffffffffffffff1681526020018273ffffffffffffffffffffffffffffffffffffffff1673ffffffffffffffffffffffffffffffffffffffff16815260200192505050602060405180830381600087803b15801561141e57600080fd5b505af1158015611432573d6000803e3d6000fd5b505050506040513d602081101561144857600080fd5b81019080805190602001909291905050509250600160009054906101000a900473ffffffffffffffffffffffffffffffffffffffff1673ffffffffffffffffffffffffffffffffffffffff166370a08231896040518263ffffffff167c0100000000000000000000000000000000000000000000000000000000028152600401808273ffffffffffffffffffffffffffffffffffffffff1673ffffffffffffffffffffffffffffffffffffffff168152602001915050602060405180830381600087803b15801561151857600080fd5b505af115801561152c573d6000803e3d6000fd5b505050506040513d602081101561154257600080fd5b81019080805190602001909291905050509150858701905080821015801561156a5750808310155b156118f657600160009054906101000a900473ffffffffffffffffffffffffffffffffffffffff1673ffffffffffffffffffffffffffffffffffffffff166323b872dd898b8a6040518463ffffffff167c0100000000000000000000000000000000000000000000000000000000028152600401808473ffffffffffffffffffffffffffffffffffffffff1673ffffffffffffffffffffffffffffffffffffffff1681526020018373ffffffffffffffffffffffffffffffffffffffff1673ffffffffffffffffffffffffffffffffffffffff1681526020018281526020019350505050602060405180830381600087803b15801561166857600080fd5b505af115801561167c573d6000803e3d6000fd5b505050506040513d602081101561169257600080fd5b810190808051906020019092919050505050600160009054906101000a900473ffffffffffffffffffffffffffffffffffffffff1673ffffffffffffffffffffffffffffffffffffffff166323b872dd8986896040518463ffffffff167c0100000000000000000000000000000000000000000000000000000000028152600401808473ffffffffffffffffffffffffffffffffffffffff1673ffffffffffffffffffffffffffffffffffffffff1681526020018373ffffffffffffffffffffffffffffffffffffffff1673ffffffffffffffffffffffffffffffffffffffff1681526020018281526020019350505050602060405180830381600087803b15801561179d57600080fd5b505af11580156117b1573d6000803e3d6000fd5b505050506040513d60208110156117c757600080fd5b8101908080519060200190929190505050508373ffffffffffffffffffffffffffffffffffffffff168873ffffffffffffffffffffffffffffffffffffffff168a73ffffffffffffffffffffffffffffffffffffffff167f3c34637ef8f12400e3f0a4dab922b0ded966b646daf7eaa0e6515c3a1cea15b18489600060048110151561184f57fe5b6020020135600019168a600160048110151561186757fe5b6020020135600019168b600260048110151561187f57fe5b6020020135600019168c600360048110151561189757fe5b6020020135600019166040518086815260200185600019166000191681526020018460001916600019168152602001836000191660001916815260200182600019166000191681526020019550505050505060405180910390a4611901565b611900888a611a92565b5b505050505050505050565b6000809054906101000a900473ffffffffffffffffffffffffffffffffffffffff1673ffffffffffffffffffffffffffffffffffffffff163373ffffffffffffffffffffffffffffffffffffffff1614151561196757600080fd5b6001600760008373ffffffffffffffffffffffffffffffffffffffff1673ffffffffffffffffffffffffffffffffffffffff16815260200190815260200160002060006101000a81548160ff0219169083151502179055508073ffffffffffffffffffffffffffffffffffffffff167f6b161cd557275940c4a7a2c365afd73d3165ac15f4c545e703220bb7baa18ad460405160405180910390a250565b600260009054906101000a900473ffffffffffffffffffffffffffffffffffffffff1681565b6000809054906101000a900473ffffffffffffffffffffffffffffffffffffffff1673ffffffffffffffffffffffffffffffffffffffff163373ffffffffffffffffffffffffffffffffffffffff16141515611a8657600080fd5b611a8f816121ea565b50565b600080600080600360008773ffffffffffffffffffffffffffffffffffffffff1673ffffffffffffffffffffffffffffffffffffffff16815260200190815260200160002060008673ffffffffffffffffffffffffffffffffffffffff1673ffffffffffffffffffffffffffffffffffffffff168152602001908152602001600020600201549350600460008773ffffffffffffffffffffffffffffffffffffffff1673ffffffffffffffffffffffffffffffffffffffff1681526020019081526020016000206001600460008973ffffffffffffffffffffffffffffffffffffffff1673ffffffffffffffffffffffffffffffffffffffff1681526020019081526020016000208054905003815481101515611bab57fe5b9060005260206000200160009054906101000a900473ffffffffffffffffffffffffffffffffffffffff16925082600460008873ffffffffffffffffffffffffffffffffffffffff1673ffffffffffffffffffffffffffffffffffffffff1681526020019081526020016000208560ff16815481101515611c2857fe5b9060005260206000200160006101000a81548173ffffffffffffffffffffffffffffffffffffffff021916908373ffffffffffffffffffffffffffffffffffffffff1602179055508360ff16600360008873ffffffffffffffffffffffffffffffffffffffff1673ffffffffffffffffffffffffffffffffffffffff16815260200190815260200160002060008573ffffffffffffffffffffffffffffffffffffffff1673ffffffffffffffffffffffffffffffffffffffff168152602001908152602001600020600201819055506001600460008873ffffffffffffffffffffffffffffffffffffffff1673ffffffffffffffffffffffffffffffffffffffff16815260200190815260200160002081818054905003915081611d4c91906122e4565b50600560008673ffffffffffffffffffffffffffffffffffffffff1673ffffffffffffffffffffffffffffffffffffffff16815260200190815260200160002060008773ffffffffffffffffffffffffffffffffffffffff1673ffffffffffffffffffffffffffffffffffffffff16815260200190815260200160002060009054906101000a900460ff169150600660008673ffffffffffffffffffffffffffffffffffffffff1673ffffffffffffffffffffffffffffffffffffffff1681526020019081526020016000206001600660008873ffffffffffffffffffffffffffffffffffffffff1673ffffffffffffffffffffffffffffffffffffffff1681526020019081526020016000208054905003815481101515611e6a57fe5b9060005260206000200160009054906101000a900473ffffffffffffffffffffffffffffffffffffffff16905080600660008773ffffffffffffffffffffffffffffffffffffffff1673ffffffffffffffffffffffffffffffffffffffff1681526020019081526020016000208360ff16815481101515611ee757fe5b9060005260206000200160006101000a81548173ffffffffffffffffffffffffffffffffffffffff021916908373ffffffffffffffffffffffffffffffffffffffff16021790555081600560008773ffffffffffffffffffffffffffffffffffffffff1673ffffffffffffffffffffffffffffffffffffffff16815260200190815260200160002060008373ffffffffffffffffffffffffffffffffffffffff1673ffffffffffffffffffffffffffffffffffffffff16815260200190815260200160002060006101000a81548160ff021916908360ff1602179055506001600660008773ffffffffffffffffffffffffffffffffffffffff1673ffffffffffffffffffffffffffffffffffffffff1681526020019081526020016000208181805490500391508161201991906122e4565b508573ffffffffffffffffffffffffffffffffffffffff168573ffffffffffffffffffffffffffffffffffffffff167fe5dcccfe8e7890c6d4aa94d44c3b409fb6f023337f29c3308077c0c4068192c460405160405180910390a3505050505050565b60008060008060009250600091505b600460008673ffffffffffffffffffffffffffffffffffffffff1673ffffffffffffffffffffffffffffffffffffffff168152602001908152602001600020805490508210156121df57600460008673ffffffffffffffffffffffffffffffffffffffff1673ffffffffffffffffffffffffffffffffffffffff1681526020019081526020016000208281548110151561212157fe5b9060005260206000200160009054906101000a900473ffffffffffffffffffffffffffffffffffffffff169050600360008673ffffffffffffffffffffffffffffffffffffffff1673ffffffffffffffffffffffffffffffffffffffff16815260200190815260200160002060008273ffffffffffffffffffffffffffffffffffffffff1673ffffffffffffffffffffffffffffffffffffffff1681526020019081526020016000206001015483019250818060010192505061208b565b829350505050919050565b600073ffffffffffffffffffffffffffffffffffffffff168173ffffffffffffffffffffffffffffffffffffffff161415151561222657600080fd5b8073ffffffffffffffffffffffffffffffffffffffff166000809054906101000a900473ffffffffffffffffffffffffffffffffffffffff1673ffffffffffffffffffffffffffffffffffffffff167f8be0079c531659141344cd1fd0a4f28419497f9722a3daafe3b4186f6b6457e060405160405180910390a3806000806101000a81548173ffffffffffffffffffffffffffffffffffffffff021916908373ffffffffffffffffffffffffffffffffffffffff16021790555050565b81548183558181111561230b5781836000526020600020918201910161230a9190612310565b5b505050565b61233291905b8082111561232e576000816000905550600101612316565b5090565b905600a165627a7a72305820d767ad1e35d7e20bf2249471e8582fa8c1f927eb41854c47bfd4d1fa3bfa27b80029",
  "source": "pragma solidity ^0.4.24;\n\nimport \"./libs/LibUserInfo.sol\";\nimport \"./interfaces/ISocialTrading.sol\";\nimport \"openzeppelin-solidity/contracts/token/ERC20/ERC20.sol\";\n\n\ncontract SocialTrading is ISocialTrading {\n  ERC20 public feeToken;\n  address public feeWallet;\n\n  mapping(address => mapping(address => LibUserInfo.Following)) public followerToLeaders; // Following list\n  mapping(address => address[]) public followerToLeadersIndex; // Following list\n  mapping(address => mapping(address => uint8)) public leaderToFollowers;\n  mapping(address => address[]) public leaderToFollowersIndex; // Follower list\n\n  mapping(address => bool) public relays;\n\n  event Follow(address indexed leader, address indexed follower, uint percentage);\n  event UnFollow(address indexed leader, address indexed follower);\n  event AddRelay(address indexed relay);\n  event RemoveRelay(address indexed relay);\n  event PaidReward(\n    address indexed leader,\n    address indexed follower,\n    address indexed relay,\n    uint rewardAndFee,\n    bytes32 leaderOpenOrderHash,\n    bytes32 leaderCloseOrderHash,\n    bytes32 followerOpenOrderHash,\n    bytes32 followercloseOrderHash\n  );\n\n  constructor (\n    address _feeWallet,\n    ERC20 _feeToken\n  ) public\n  {\n    feeWallet = _feeWallet;\n    feeToken = _feeToken;\n  }\n\n  function() public {\n    revert();\n  }\n\n  /**\n   * @dev Follow leader to copy trade.\n   */\n  function follow(address _leader, uint256 _percentage) external {\n    require(getCurrentPercentage(msg.sender) + _percentage <= 100 ether, \"Following percentage more than 100%.\");\n    uint8 index = uint8(followerToLeadersIndex[msg.sender].push(_leader) - 1);\n    followerToLeaders[msg.sender][_leader] = LibUserInfo.Following(\n      _leader,\n      _percentage,\n      index\n    );\n\n    uint8 index2 = uint8(leaderToFollowersIndex[_leader].push(msg.sender) - 1);\n    leaderToFollowers[_leader][msg.sender] = index2;\n    emit Follow(_leader, msg.sender, _percentage);\n  }\n\n  /**\n   * @dev UnFollow leader to stop copy trade.\n   */\n  function unfollow(address _leader) external {\n    _unfollow(msg.sender, _leader);\n  }\n\n  function _unfollow(address _follower, address _leader) private {\n    uint8 rowToDelete = uint8(followerToLeaders[_follower][_leader].index);\n    address keyToMove = followerToLeadersIndex[_follower][followerToLeadersIndex[_follower].length - 1];\n    followerToLeadersIndex[_follower][rowToDelete] = keyToMove;\n    followerToLeaders[_follower][keyToMove].index = rowToDelete;\n    followerToLeadersIndex[_follower].length -= 1;\n\n    uint8 rowToDelete2 = uint8(leaderToFollowers[_leader][_follower]);\n    address keyToMove2 = leaderToFollowersIndex[_leader][leaderToFollowersIndex[_leader].length - 1];\n    leaderToFollowersIndex[_leader][rowToDelete2] = keyToMove2;\n    leaderToFollowers[_leader][keyToMove2] = rowToDelete2;\n    leaderToFollowersIndex[_leader].length -= 1;\n    emit UnFollow(_leader, _follower);\n  }\n\n  function getFriends(address _user) public view returns (address[]) {\n    address[] memory result = new address[](followerToLeadersIndex[_user].length);\n    uint counter = 0;\n    for (uint i = 0; i < followerToLeadersIndex[_user].length; i++) {\n      result[counter] = followerToLeadersIndex[_user][i];\n      counter++;\n    }\n    return result;\n  }\n\n  function getFollowers(address _user) public view returns (address[]) {\n    address[] memory result = new address[](leaderToFollowersIndex[_user].length);\n    uint counter = 0;\n    for (uint i = 0; i < leaderToFollowersIndex[_user].length; i++) {\n      result[counter] = leaderToFollowersIndex[_user][i];\n      counter++;\n    }\n    return result;\n  }\n\n  function getCurrentPercentage(address _user) internal view returns (uint) {\n    uint sum = 0;\n    for (uint i = 0; i < followerToLeadersIndex[_user].length; i++) {\n      address leader = followerToLeadersIndex[_user][i];\n      sum += followerToLeaders[_user][leader].percentage;\n    }\n    return sum;\n  }\n\n  /**\n   * @dev Register relay to contract by the owner.\n   */\n  function registerRelay(address _relay) onlyOwner external {\n    relays[_relay] = true;\n    emit AddRelay(_relay);\n  }\n\n  /**\n   * @dev Remove relay.\n   */\n  function removeRelay(address _relay) onlyOwner external {\n    relays[_relay] = false;\n    emit RemoveRelay(_relay);\n  }\n\n  function distributeReward(\n    address _leader,\n    address _follower,\n    uint _reward,\n    uint _relayFee,\n    bytes32[4] _orderHashes\n  ) external\n  {\n    // orderHashes[0] = leaderOpenOrderHash\n    // orderHashes[1] = leaderCloseOrderHash\n    // orderHashes[2] = followerOpenOrderHash\n    // orderHashes[3] = followerCloseOrderHash\n    address relay = msg.sender;\n    require(relays[relay]);\n    // Accept only trusted relay\n    uint256 allowance = feeToken.allowance(_follower, address(this));\n    uint256 balance = feeToken.balanceOf(_follower);\n    uint rewardAndFee = _reward + _relayFee;\n    if ((balance >= rewardAndFee) && (allowance >= rewardAndFee)) {\n      feeToken.transferFrom(_follower, _leader, _reward);\n      feeToken.transferFrom(_follower, relay, _relayFee);\n      emit PaidReward(\n        _leader,\n        _follower,\n        relay,\n        rewardAndFee,\n        _orderHashes[0],\n        _orderHashes[1],\n        _orderHashes[2],\n        _orderHashes[3]\n      );\n    } else {\n      _unfollow(_follower, _leader);\n    }\n  }\n}\n",
  "sourcePath": "/home/robot/CarboneumProject/contracts/contracts/socialtrading/SocialTrading.sol",
  "compiler": {
    "name": "solc",
    "version": "0.4.25+commit.59dbf8f1.Emscripten.clang"
  },
  "schemaVersion": "2.0.2",
  "updatedAt": "2019-06-10T11:28:52.431Z"
}