{
  "contractName": "Subscription",
  "abi": [
    {
      "constant": true,
      "inputs": [],
      "name": "wallet",
      "outputs": [
        {
          "name": "",
          "type": "address"
        }
      ],
      "payable": false,
      "stateMutability": "view",
      "type": "function"
    },
    {
      "constant": false,
      "inputs": [],
      "name": "renounceOwnership",
      "outputs": [],
      "payable": false,
      "stateMutability": "nonpayable",
      "type": "function"
    },
    {
      "constant": true,
      "inputs": [],
      "name": "owner",
      "outputs": [
        {
          "name": "",
          "type": "address"
        }
      ],
      "payable": false,
      "stateMutability": "view",
      "type": "function"
    },
    {
      "constant": true,
      "inputs": [],
      "name": "subscriptionRate",
      "outputs": [
        {
          "name": "",
          "type": "uint256"
        }
      ],
      "payable": false,
      "stateMutability": "view",
      "type": "function"
    },
    {
      "constant": true,
      "inputs": [],
      "name": "fee",
      "outputs": [
        {
          "name": "",
          "type": "uint256"
        }
      ],
      "payable": false,
      "stateMutability": "view",
      "type": "function"
    },
    {
      "constant": true,
      "inputs": [
        {
          "name": "",
          "type": "uint256"
        }
      ],
      "name": "applications",
      "outputs": [
        {
          "name": "appId",
          "type": "uint256"
        },
        {
          "name": "appName",
          "type": "bytes32"
        },
        {
          "name": "beneficiary",
          "type": "address"
        },
        {
          "name": "owner",
          "type": "address"
        }
      ],
      "payable": false,
      "stateMutability": "view",
      "type": "function"
    },
    {
      "constant": false,
      "inputs": [
        {
          "name": "_newOwner",
          "type": "address"
        }
      ],
      "name": "transferOwnership",
      "outputs": [],
      "payable": false,
      "stateMutability": "nonpayable",
      "type": "function"
    },
    {
      "constant": true,
      "inputs": [],
      "name": "token",
      "outputs": [
        {
          "name": "",
          "type": "address"
        }
      ],
      "payable": false,
      "stateMutability": "view",
      "type": "function"
    },
    {
      "inputs": [
        {
          "name": "_fee",
          "type": "uint256"
        },
        {
          "name": "_fundWallet",
          "type": "address"
        },
        {
          "name": "_token",
          "type": "address"
        }
      ],
      "payable": false,
      "stateMutability": "nonpayable",
      "type": "constructor"
    },
    {
      "anonymous": false,
      "inputs": [
        {
          "indexed": true,
          "name": "purchaser",
          "type": "address"
        },
        {
          "indexed": true,
          "name": "_appId",
          "type": "uint256"
        },
        {
          "indexed": true,
          "name": "userId",
          "type": "uint256"
        },
        {
          "indexed": false,
          "name": "day",
          "type": "uint256"
        },
        {
          "indexed": false,
          "name": "amount",
          "type": "uint256"
        },
        {
          "indexed": false,
          "name": "expiration",
          "type": "uint256"
        }
      ],
      "name": "SubscriptionPurchase",
      "type": "event"
    },
    {
      "anonymous": false,
      "inputs": [
        {
          "indexed": true,
          "name": "creator",
          "type": "address"
        },
        {
          "indexed": false,
          "name": "_appId",
          "type": "uint256"
        },
        {
          "indexed": false,
          "name": "_appName",
          "type": "bytes32"
        },
        {
          "indexed": false,
          "name": "_price",
          "type": "uint256"
        },
        {
          "indexed": false,
          "name": "_beneficiary",
          "type": "address"
        }
      ],
      "name": "Registration",
      "type": "event"
    },
    {
      "anonymous": false,
      "inputs": [
        {
          "indexed": true,
          "name": "previousOwner",
          "type": "address"
        }
      ],
      "name": "OwnershipRenounced",
      "type": "event"
    },
    {
      "anonymous": false,
      "inputs": [
        {
          "indexed": true,
          "name": "previousOwner",
          "type": "address"
        },
        {
          "indexed": true,
          "name": "newOwner",
          "type": "address"
        }
      ],
      "name": "OwnershipTransferred",
      "type": "event"
    },
    {
      "constant": false,
      "inputs": [
        {
          "name": "_appId",
          "type": "uint256"
        },
        {
          "name": "_userId",
          "type": "uint256"
        },
        {
          "name": "_day",
          "type": "uint256"
        }
      ],
      "name": "renewSubscriptionByDays",
      "outputs": [],
      "payable": false,
      "stateMutability": "nonpayable",
      "type": "function"
    },
    {
      "constant": false,
      "inputs": [
        {
          "name": "_appName",
          "type": "bytes32"
        },
        {
          "name": "_price",
          "type": "uint256"
        },
        {
          "name": "_beneficiary",
          "type": "address"
        }
      ],
      "name": "registration",
      "outputs": [],
      "payable": false,
      "stateMutability": "nonpayable",
      "type": "function"
    },
    {
      "constant": false,
      "inputs": [
        {
          "name": "_appId",
          "type": "uint256"
        },
        {
          "name": "_days",
          "type": "uint256[]"
        },
        {
          "name": "_prices",
          "type": "uint256[]"
        }
      ],
      "name": "setPrice",
      "outputs": [],
      "payable": false,
      "stateMutability": "nonpayable",
      "type": "function"
    },
    {
      "constant": false,
      "inputs": [
        {
          "name": "_fee",
          "type": "uint256"
        }
      ],
      "name": "setFee",
      "outputs": [],
      "payable": false,
      "stateMutability": "nonpayable",
      "type": "function"
    },
    {
      "constant": true,
      "inputs": [
        {
          "name": "_appId",
          "type": "uint256"
        },
        {
          "name": "_userId",
          "type": "uint256"
        }
      ],
      "name": "getExpiration",
      "outputs": [
        {
          "name": "",
          "type": "uint256"
        }
      ],
      "payable": false,
      "stateMutability": "view",
      "type": "function"
    },
    {
      "constant": true,
      "inputs": [
        {
          "name": "_appId",
          "type": "uint256"
        },
        {
          "name": "_day",
          "type": "uint256"
        }
      ],
      "name": "getPrice",
      "outputs": [
        {
          "name": "",
          "type": "uint256"
        }
      ],
      "payable": false,
      "stateMutability": "view",
      "type": "function"
    }
  ],
  "bytecode": "0x608060405234801561001057600080fd5b506040516060806114f5833981018060405281019080805190602001909291908051906020019092919080519060200190929190505050336000806101000a81548173ffffffffffffffffffffffffffffffffffffffff021916908373ffffffffffffffffffffffffffffffffffffffff160217905550600073ffffffffffffffffffffffffffffffffffffffff168173ffffffffffffffffffffffffffffffffffffffff16141515156100c357600080fd5b600073ffffffffffffffffffffffffffffffffffffffff168273ffffffffffffffffffffffffffffffffffffffff16141515156100ff57600080fd5b60008311151561010e57600080fd5b80600160006101000a81548173ffffffffffffffffffffffffffffffffffffffff021916908373ffffffffffffffffffffffffffffffffffffffff16021790555081600260006101000a81548173ffffffffffffffffffffffffffffffffffffffff021916908373ffffffffffffffffffffffffffffffffffffffff160217905550826004819055506000600581905550505050611344806101b16000396000f3006080604052600436106100d0576000357c0100000000000000000000000000000000000000000000000000000000900463ffffffff1680630b14331f146100d5578063521eb273146101205780635cf4ee911461017757806369fe0e2d146101c2578063715018a6146101ef5780637462beec146102065780638da5cb5b14610247578063a243b6c11461029e578063ced0c0c2146102fb578063ddca3f4314610326578063dfef58a614610351578063dfefadff146103ac578063f2fde38b14610462578063fc0c546a146104a5575b600080fd5b3480156100e157600080fd5b5061010a60048036038101908080359060200190929190803590602001909291905050506104fc565b6040518082815260200191505060405180910390f35b34801561012c57600080fd5b50610135610533565b604051808273ffffffffffffffffffffffffffffffffffffffff1673ffffffffffffffffffffffffffffffffffffffff16815260200191505060405180910390f35b34801561018357600080fd5b506101ac6004803603810190808035906020019092919080359060200190929190505050610559565b6040518082815260200191505060405180910390f35b3480156101ce57600080fd5b506101ed600480360381019080803590602001909291905050506106b7565b005b3480156101fb57600080fd5b5061020461071c565b005b34801561021257600080fd5b5061024560048036038101908080359060200190929190803590602001909291908035906020019092919050505061081e565b005b34801561025357600080fd5b5061025c610acf565b604051808273ffffffffffffffffffffffffffffffffffffffff1673ffffffffffffffffffffffffffffffffffffffff16815260200191505060405180910390f35b3480156102aa57600080fd5b506102f960048036038101908080359060200190929190803590602001908201803590602001919091929391929390803590602001908201803590602001919091929391929390505050610af4565b005b34801561030757600080fd5b50610310610c6b565b6040518082815260200191505060405180910390f35b34801561033257600080fd5b5061033b610c71565b6040518082815260200191505060405180910390f35b34801561035d57600080fd5b506103aa600480360381019080803560001916906020019092919080359060200190929190803573ffffffffffffffffffffffffffffffffffffffff169060200190929190505050610c77565b005b3480156103b857600080fd5b506103d760048036038101908080359060200190929190505050610ea6565b6040518085815260200184600019166000191681526020018373ffffffffffffffffffffffffffffffffffffffff1673ffffffffffffffffffffffffffffffffffffffff1681526020018273ffffffffffffffffffffffffffffffffffffffff1673ffffffffffffffffffffffffffffffffffffffff16815260200194505050505060405180910390f35b34801561046e57600080fd5b506104a3600480360381019080803573ffffffffffffffffffffffffffffffffffffffff169060200190929190505050610f16565b005b3480156104b157600080fd5b506104ba610f7d565b604051808273ffffffffffffffffffffffffffffffffffffffff1673ffffffffffffffffffffffffffffffffffffffff16815260200191505060405180910390f35b6000806006600085815260200190815260200160002090508060040160008481526020019081526020016000205491505092915050565b600260009054906101000a900473ffffffffffffffffffffffffffffffffffffffff1681565b6000806000806000806006600089815260200190815260200160002094506000199350600092505b84600501805490508310156106995784600501838154811015156105a157fe5b9060005260206000209060020201600001548714156105e75784600501838154811015156105cb57fe5b90600052602060002090600202016001015493508395506106ac565b84600501838154811015156105f857fe5b90600052602060002090600202016000015487111561068c57610668856005018481548110151561062557fe5b906000526020600020906002020160000154866005018581548110151561064857fe5b906000526020600020906002020160010154610fa390919063ffffffff16565b915061067d8288610fb990919063ffffffff16565b90508381101561068b578093505b5b8280600101935050610581565b6000198414156106a857600093505b8395505b505050505092915050565b6000809054906101000a900473ffffffffffffffffffffffffffffffffffffffff1673ffffffffffffffffffffffffffffffffffffffff163373ffffffffffffffffffffffffffffffffffffffff1614151561071257600080fd5b8060048190555050565b6000809054906101000a900473ffffffffffffffffffffffffffffffffffffffff1673ffffffffffffffffffffffffffffffffffffffff163373ffffffffffffffffffffffffffffffffffffffff1614151561077757600080fd5b6000809054906101000a900473ffffffffffffffffffffffffffffffffffffffff1673ffffffffffffffffffffffffffffffffffffffff167ff8df31144d9c2f0f6b59d69b8b98abd5459d07f2742c4df920b25aae33c6482060405160405180910390a260008060006101000a81548173ffffffffffffffffffffffffffffffffffffffff021916908373ffffffffffffffffffffffffffffffffffffffff160217905550565b600080600080600080600660008a8152602001908152602001600020955088866000015414151561084e57600080fd5b6001871015151561085e57600080fd5b6108688988610559565b945060008511151561087957600080fd5b8560040160008981526020019081526020016000205493504284101561089d574293505b6108c56108b66201518089610fb990919063ffffffff16565b85610ff190919063ffffffff16565b9250828660040160008a8152602001908152602001600020819055506108ea8561100d565b91506108ff82866111a490919063ffffffff16565b9050600160009054906101000a900473ffffffffffffffffffffffffffffffffffffffff1673ffffffffffffffffffffffffffffffffffffffff166323b872dd338860020160009054906101000a900473ffffffffffffffffffffffffffffffffffffffff16846040518463ffffffff167c0100000000000000000000000000000000000000000000000000000000028152600401808473ffffffffffffffffffffffffffffffffffffffff1673ffffffffffffffffffffffffffffffffffffffff1681526020018373ffffffffffffffffffffffffffffffffffffffff1673ffffffffffffffffffffffffffffffffffffffff1681526020018281526020019350505050602060405180830381600087803b158015610a1e57600080fd5b505af1158015610a32573d6000803e3d6000fd5b505050506040513d6020811015610a4857600080fd5b81019080805190602001909291905050501515610a6457600080fd5b87893373ffffffffffffffffffffffffffffffffffffffff167f197b99d70eec416626e54340e5f9a493b8f2a7d23ba920d1ca30b524b3ae66758a898860405180848152602001838152602001828152602001935050505060405180910390a4505050505050505050565b6000809054906101000a900473ffffffffffffffffffffffffffffffffffffffff1681565b6000806006600088815260200190815260200160002091503373ffffffffffffffffffffffffffffffffffffffff168260030160009054906101000a900473ffffffffffffffffffffffffffffffffffffffff1673ffffffffffffffffffffffffffffffffffffffff16141515610b6a57600080fd5b60008260050181610b7b91906112b7565b50600090505b85859050811015610c625760008686838181101515610b9c57fe5b90506020020135111515610baf57600080fd5b60008484838181101515610bbf57fe5b90506020020135111515610bd257600080fd5b8160050160408051908101604052808888858181101515610bef57fe5b9050602002013581526020018686858181101515610c0957fe5b905060200201358152509080600181540180825580915050906001820390600052602060002090600202016000909192909190915060008201518160000155602082015181600101555050508080600101915050610b81565b50505050505050565b60035481565b60045481565b600080846000191614151515610c8c57600080fd5b600083111515610c9b57600080fd5b600073ffffffffffffffffffffffffffffffffffffffff168273ffffffffffffffffffffffffffffffffffffffff1614151515610cd757600080fd5b610ced6001600554610ff190919063ffffffff16565b6005819055506006600060055481526020019081526020016000209050600554816000018190555083816001018160001916905550818160020160006101000a81548173ffffffffffffffffffffffffffffffffffffffff021916908373ffffffffffffffffffffffffffffffffffffffff160217905550338160030160006101000a81548173ffffffffffffffffffffffffffffffffffffffff021916908373ffffffffffffffffffffffffffffffffffffffff16021790555080600501604080519081016040528060018152602001858152509080600181540180825580915050906001820390600052602060002090600202016000909192909190915060008201518160000155602082015181600101555050503373ffffffffffffffffffffffffffffffffffffffff167fc51cb55dba33855ca461609037e9340bb547ea6db4e6114b455e90dac829618b6005548686866040518085815260200184600019166000191681526020018381526020018273ffffffffffffffffffffffffffffffffffffffff1673ffffffffffffffffffffffffffffffffffffffff16815260200194505050505060405180910390a250505050565b60066020528060005260406000206000915090508060000154908060010154908060020160009054906101000a900473ffffffffffffffffffffffffffffffffffffffff16908060030160009054906101000a900473ffffffffffffffffffffffffffffffffffffffff16905084565b6000809054906101000a900473ffffffffffffffffffffffffffffffffffffffff1673ffffffffffffffffffffffffffffffffffffffff163373ffffffffffffffffffffffffffffffffffffffff16141515610f7157600080fd5b610f7a816111bd565b50565b600160009054906101000a900473ffffffffffffffffffffffffffffffffffffffff1681565b60008183811515610fb057fe5b04905092915050565b600080831415610fcc5760009050610feb565b8183029050818382811515610fdd57fe5b04141515610fe757fe5b8090505b92915050565b6000818301905082811015151561100457fe5b80905092915050565b600080611038606461102a60045486610fb990919063ffffffff16565b610fa390919063ffffffff16565b9050600160009054906101000a900473ffffffffffffffffffffffffffffffffffffffff1673ffffffffffffffffffffffffffffffffffffffff166323b872dd33600260009054906101000a900473ffffffffffffffffffffffffffffffffffffffff16846040518463ffffffff167c0100000000000000000000000000000000000000000000000000000000028152600401808473ffffffffffffffffffffffffffffffffffffffff1673ffffffffffffffffffffffffffffffffffffffff1681526020018373ffffffffffffffffffffffffffffffffffffffff1673ffffffffffffffffffffffffffffffffffffffff1681526020018281526020019350505050602060405180830381600087803b15801561115557600080fd5b505af1158015611169573d6000803e3d6000fd5b505050506040513d602081101561117f57600080fd5b8101908080519060200190929190505050151561119b57600080fd5b80915050919050565b60008282111515156111b257fe5b818303905092915050565b600073ffffffffffffffffffffffffffffffffffffffff168173ffffffffffffffffffffffffffffffffffffffff16141515156111f957600080fd5b8073ffffffffffffffffffffffffffffffffffffffff166000809054906101000a900473ffffffffffffffffffffffffffffffffffffffff1673ffffffffffffffffffffffffffffffffffffffff167f8be0079c531659141344cd1fd0a4f28419497f9722a3daafe3b4186f6b6457e060405160405180910390a3806000806101000a81548173ffffffffffffffffffffffffffffffffffffffff021916908373ffffffffffffffffffffffffffffffffffffffff16021790555050565b8154818355818111156112e4576002028160020283600052602060002091820191016112e391906112e9565b5b505050565b61131591905b80821115611311576000808201600090556001820160009055506002016112ef565b5090565b905600a165627a7a72305820090960f3792fe055f3d5ee610ab0858f7c3a5bdedd91be7a6525d3520116b7210029",
  "source": "pragma solidity ^0.4.21;\n\nimport \"openzeppelin-solidity/contracts/token/ERC20/ERC20.sol\";\nimport \"openzeppelin-solidity/contracts/math/SafeMath.sol\";\nimport \"openzeppelin-solidity/contracts/ownership/Ownable.sol\";\n\n\ncontract Subscription is Ownable {\n  uint256 constant UINT256_MAX = ~uint256(0);\n  using SafeMath for uint256;\n\n  /// @dev The token being use (C8)\n  ERC20 public token;\n\n  /// @dev Address where fee are collected\n  address public wallet;\n\n  /// @dev Cost per day of membership for C8 token\n  uint256 public subscriptionRate;\n\n  uint public fee;\n\n  uint256 lastAppId;\n\n  struct Pricing {\n    uint256 day;\n    uint256 price;\n  }\n\n  struct Application {\n    /// @dev Application Id.\n    uint256 appId;\n\n    /// @dev Application name.\n    bytes32 appName;\n\n    /// @dev Beneficiary address.\n    address beneficiary;\n\n    /// @dev Owner address.\n    address owner;\n\n    /// @dev Timestamp of when Membership expires UserId=>timestamp of expire.\n    mapping(uint256 => uint256) subscriptionExpiration;\n\n    Pricing[] prices;\n  }\n\n  mapping(uint256 => Application) public applications;\n\n  /**\n   * Event for subscription purchase logging\n   * @param purchaser who paid for the subscription\n   * @param userId user id who will benefit from purchase\n   * @param day day of subscription purchased\n   * @param amount amount of subscription purchased in wei\n   * @param expiration expiration of user subscription.\n   */\n  event SubscriptionPurchase(\n    address indexed purchaser,\n    uint256 indexed _appId,\n    uint256 indexed userId,\n    uint256 day,\n    uint256 amount,\n    uint256 expiration\n  );\n\n  event Registration(\n    address indexed creator,\n    uint256 _appId,\n    bytes32 _appName,\n    uint256 _price,\n    address _beneficiary\n  );\n\n  function Subscription(\n    uint _fee,\n    address _fundWallet,\n    ERC20 _token) public\n  {\n    require(_token != address(0));\n    require(_fundWallet != address(0));\n    require(_fee > 0);\n    token = _token;\n    wallet = _fundWallet;\n    fee = _fee;\n    lastAppId = 0;\n  }\n\n  function renewSubscriptionByDays(uint256 _appId, uint256 _userId, uint _day) external {\n    Application storage app = applications[_appId];\n    require(app.appId == _appId);\n    require(_day >= 1);\n    uint256 amount = getPrice(_appId, _day);\n    require(amount > 0);\n\n    uint256 currentExpiration = app.subscriptionExpiration[_userId];\n    // If their membership already expired...\n    if (currentExpiration < now) {\n      // ...use `now` as the starting point of their new subscription\n      currentExpiration = now;\n    }\n    uint256 newExpiration = currentExpiration.add(_day.mul(1 days));\n    app.subscriptionExpiration[_userId] = newExpiration;\n    uint256 txFee = processFee(amount);\n    uint256 toAppOwner = amount.sub(txFee);\n    require(token.transferFrom(msg.sender, app.beneficiary, toAppOwner));\n    emit SubscriptionPurchase(\n      msg.sender,\n      _appId,\n      _userId,\n      _day,\n      amount,\n      newExpiration);\n  }\n\n  function registration(\n    bytes32 _appName,\n    uint256 _price,\n    address _beneficiary)\n  external\n  {\n    require(_appName != \"\");\n    require(_price > 0);\n    require(_beneficiary != address(0));\n    lastAppId = lastAppId.add(1);\n    Application storage app = applications[lastAppId];\n    app.appId = lastAppId;\n    app.appName = _appName;\n    app.beneficiary = _beneficiary;\n    app.owner = msg.sender;\n    app.prices.push(Pricing({\n      day : 1,\n      price : _price\n      }));\n    emit Registration(\n      msg.sender,\n      lastAppId,\n      _appName,\n      _price,\n      _beneficiary);\n  }\n\n  function setPrice(uint256 _appId, uint256[] _days, uint256[] _prices) external {\n    Application storage app = applications[_appId];\n    require(app.owner == msg.sender);\n    app.prices.length = 0;\n    for (uint i = 0; i < _days.length; i++) {\n      require(_days[i] > 0);\n      require(_prices[i] > 0);\n      app.prices.push(Pricing({\n        day : _days[i],\n        price : _prices[i]\n        }));\n    }\n  }\n\n  /// @dev Set fee percent for Carboneum team.\n  function setFee(uint _fee) external onlyOwner {\n    fee = _fee;\n  }\n\n  function getExpiration(uint256 _appId, uint256 _userId) public view returns (uint256) {\n    Application storage app = applications[_appId];\n    return app.subscriptionExpiration[_userId];\n  }\n\n  function getPrice(uint256 _appId, uint256 _day) public view returns (uint256) {\n    Application storage app = applications[_appId];\n    uint256 amount = UINT256_MAX;\n    for (uint i = 0; i < app.prices.length; i++) {\n      if (_day == app.prices[i].day) {\n        amount = app.prices[i].price;\n        return amount;\n      } else if (_day > app.prices[i].day) {\n        uint256 rate = app.prices[i].price.div(app.prices[i].day);\n        uint256 amountInPrice = _day.mul(rate);\n        if (amountInPrice < amount) {\n          amount = amountInPrice;\n        }\n      }\n    }\n    if (amount == UINT256_MAX) {\n      amount = 0;\n    }\n    return amount;\n  }\n\n  function processFee(uint256 _weiAmount) internal returns (uint256) {\n    uint256 txFee = _weiAmount.mul(fee).div(100);\n    require(token.transferFrom(msg.sender, wallet, txFee));\n    return txFee;\n  }\n}\n",
  "sourcePath": "/home/robot/CarboneumProject/contracts/contracts/subscription/Subscription.sol",
  "compiler": {
    "name": "solc",
    "version": "0.4.25+commit.59dbf8f1.Emscripten.clang"
  },
  "schemaVersion": "2.0.2",
  "updatedAt": "2019-06-10T11:28:52.440Z"
}